:0200000280007C
:10000000B808002025040800210408002104080085
:100010002104080021040800210408000000000059
:1000200000000000000000000000000021040800A3
:100030002104080000000000210408002104080039
:1000400021040800210408002104080021040800FC
:1000500021040800210408002104080021040800EC
:100060001D0B080021040800000000002104080006
:1000700021040800210408002104080000000000F9
:1000800000000000210408002104080021040800E9
:1000900021040800210408002104080021040800AC
:1000A00021040800000000002104080021040800C9
:1000B000210408002104080021040800210408008C
:1000C000210408002104080021040800210408007C
:1000D000210408002104080021040800210408006C
:1000E000210408002104080021040800B1030800CD
:1000F0002104080010B5054C237833B9044B13B123
:100100000448AFF300800123237010BD34040020A5
:1001100000000000CC1308000C4B43B10C4810B594
:100120000C49AFF300800C48036823B910BD0A489E
:10013000036833B97047094B002BF7D0BDE8104076
:100140001847064B002BF5D0184700BF00000000F1
:10015000CC13080038040020CC1308000000000075
:100160000C4AD2F8003143F04003C2F800310A4B88
:10017000D3F8E42022F00202C3F8E4201A6942F026
:1001800002021A615A6842F480325A605A685A6010
:10019000704700BF00060E4000800C4010B50446BA
:1001A0000D4900680D4B984708B10B4B23600021A7
:1001B00020680B4B984760B90A4920680A4B98475A
:1001C00005490A4B98470A4B984780B2094B186279
:1001D00010BD00232360EFE70000A04019110800C4
:1001E000DD10080000F07F45A10D0800090F080090
:1001F0007911080000800C400D4AD2F8003143F01C
:100200002003C2F800310B4B1A6842F001021A6059
:100210005A6842F010025A605A6842F080025A60EE
:100220001A6942F040021A6102221A60704700BF48
:1002300000060E4000000C40F0B45718082FD4BF41
:1002400000230123082998BF082A5CD80D46002BFB
:1002500059D12E4A136823F00103136013692C4B04
:100260004FF440745C641C6F24F003041C67032487
:100270005C605C66A3F50063264CC3F80C41D3F8C0
:10028000004144F40064C3F800415061002419E0C7
:100290001E4801F110035B01C2180026566000EBF6
:1002A00041124FF00056C2F808624FF08076C650F7
:1002B000D2F81C3243F40003C2F81C3201238B40F5
:1002C0001C430131B942E3DD00230DE00F4901EB8E
:1002D00043124FF00050C2F8080203F1100252011D
:1002E0004FF0407088500133AB42EFDB074B5C604E
:1002F0004FF40061084A51601A6842F001021A6026
:100300000020F0BC70470120FBE700BF00400B401D
:10031000000E0E402B10001000E100E008B5022294
:100320000121014B984708BD390208004B0103F138
:10033000402303F53023D3F8103213F4000F33D0E9
:1003400070B44B0103F1402303F53023D3F814427A
:10035000D3F81822D3F80852C5F38A450580D3F89C
:100360001052C5F303458570002303E0C618F270F0
:10037000120A0133AB4205DA032BF7DCC618F4701E
:10038000240AF6E7094B01F1100252014FF0807088
:10039000985003EB4111D1F81C3243F40003C1F82B
:1003A0001C32002070BC70470120704700400B4099
:1003B00010B584B0154B1C6914F0060F19D014F059
:1003C000020F08D114F0040F0AD0022101A8104B2B
:1003D0009847002309E0012101A80D4B9847F8E751
:1003E0000C480D4B9847F4E701339DF806209342E3
:1003F000FADB14F0010F02D00122044B9A604FF493
:100400000062064BC3F8842104B010BD00400B40CD
:100410002D03080028130800050A080000E100E089
:10042000FEE7000008B5114B114A9A4209D00F4B64
:100430000F4A03E011681960043304320D498B42FE
:10044000F8D30D4B02E000221A6004330B4A9342AA
:10045000F9D30B4B23F0604323F07F03094A9360E9
:10046000094B9847094B9847FEE700BF0000002062
:10047000CC1308003404002034040020B804002009
:100480000000080000ED00E0B91108003505080083
:100490004FF48063204A136002F5007213601F4B13
:1004A0001B6A13F0807F07D11D4A1C4B1A621B4B3D
:1004B0009B6E13F0010FFAD01A4A184B1A62174BB1
:1004C0009B6E13F4803FFAD0144A136B23F003039E
:1004D00043F001031363114B9B6E13F0080FFAD026
:1004E000114A0E4B9A620D4B9B6E13F0020FFAD01D
:1004F00011220A4B1A63094B9B6E13F0080FFAD0B6
:100500001222064B1A63054B9B6E13F0080FFAD0AC
:10051000064A074B1A607047000A0E4000060E405C
:100520000908370009083701013F0D2000BD01050A
:100530000000002000B585B04FF40042124B5A6015
:10054000124B9847124B9847124B9847124B9847BB
:10055000124B9847124B9847124B1A6842F40022EC
:100560001A601A6942F400221A610F480F4B98472B
:10057000002101A80E4B98479DF809109DF807002F
:100580000C4B9847F4E700BF501A0E409104080046
:10059000910A0800290A0800F90108006101080011
:1005A000F1050800000E0E40650129001D0308003A
:1005B0002D0308009906080010B582B004464FF0DC
:1005C0007E5301930023009307E001980649074BEF
:1005D00098470190009B01330093009BB3EB842F5D
:1005E000F3DB02B010BD00BFCDCC8C3FA10D0800E5
:1005F00038B5124A136943F400531361104B1A685B
:1006000042F4FF721A605A6942F4FF725A610D4C4B
:10061000226840F207610A43226023690B43236189
:100620004FF400732363022565630120064B98474E
:1006300025630020054B984738BD00BF00060E40DB
:1006400000120E4000140E40B90508009D0108007C
:100650002DE9F8430D4D01266E634FF00409C5F8EE
:1006600034903046DFF82C80C047094FFC6B2402E1
:1006700004F47E44C5F830903046C047F86B00F46F
:10068000FF70204480B22E63BDE8F88300140E4052
:1006900000120E40B905080010B582B0642800DDD4
:1006A0006420002833DB002933D0012942D142F2F3
:1006B000582303FB00F0234C84FB0024C017A0EB5D
:1006C00064141C44204A136B43F480631363214673
:1006D0001E481F4B98471F4B9847201A1E4B9847A0
:1006E0001E491F4B98470446019000211D4B984717
:1006F00018BB02AC54F8040D1B4B984701461B482D
:10070000134B984720461A4B984702B010BD002063
:10071000C9E742F2582303FB00F00A4C84FB002493
:10072000C017C0EB64141C44074A536B43F4806346
:100730005363CCE742F25824C9E704F10044019422
:10074000D7E700BF1F85EB5100140E40541308007B
:10075000050A080051060800F90C08006F12033A58
:10076000A10D0800DD1008002D1108006813080015
:100770009D01080008B5C8B2014B984708BD00BFED
:10078000F90A08002DE9F04107460E46151E02DD64
:100790000A46002104E04FF020080EE0013101324A
:1007A00010780028FAD1A94201DA6D1A00E000257C
:1007B00013F0020F06D14FF0200813F001040AD005
:1007C000002410E04FF03008F7E7414638460D4B63
:1007D00098470134013D002DF7DC04E03846094B11
:1007E00098470134013631780029F7D105E04146B8
:1007F0003846044B98470134013D002DF7DC204674
:10080000BDE8F08175070800F0B585B007460C9883
:1008100051B11E460C4613B10A2A12D0002604AD6F
:10082000002305F8013D18E030238DF80430002343
:100830008DF805300B9B0A9A01A938461B4CA0473E
:1008400029E0002901DB0026E9E74C420126E6E722
:10085000303305F8013DB4FBF2F44CB1B4FBF2F3D4
:1008600002FB1343092BF3DDA0F13A010B44EFE740
:1008700056B10A9B1BB10B9B13F0020F0DD12D2318
:1008800005F8013C013D00260B9B0A9A2946384693
:10089000064CA047304405B0F0BD2D213846044B2E
:1008A00098470A9B013B0A93EEE700BF85070800C3
:1008B00075070800F0B589B006460C46059200257C
:1008C00081E0A21C01238BE0013443F00203227873
:1008D000302AF9D0002206E002EB82025000A1F19A
:1008E0003002024401342178A1F13000C0B209285D
:1008F000F2D9732918D0642922D078292FD0582909
:100900003CD0752949D063295CD10599081D059013
:1009100009788DF81C1000218DF81D1007A93046AC
:10092000344FB84705444DE00599081D0590096806
:1009300021B130462F4FB847054443E02E49F8E730
:100940000599081D059009686120029001930092A5
:1009500001230A223046294FB847054432E0059961
:10096000081D059009686120029001930092002300
:1009700010223046214FB847054423E00599081D51
:1009800005900968412002900193009200231022F3
:1009900030461A4FB847054414E00599081D0590E4
:1009A0000968612002900193009200230A223046D8
:1009B000124FB847054405E0144621783046104BE5
:1009C000984701350134237863B1252BF5D1621C9A
:1009D00063783BB1252BEFD02D2B3FF472AF002372
:1009E000144674E716B1336800221A70284609B01D
:1009F000F0BD00BF850708007C1308000908080047
:100A0000750708000FB400B583B004AA52F8041BA0
:100A100001920020034B984703B05DF804EB04B04B
:100A2000704700BFB5080800154B1A6F42F400224A
:100A30001A675A6842F400225A60124AD2F800310A
:100A400043F01003C2F800310F4B104A1A60D3F87C
:100A5000A02242F40372C3F8A022D3F8AC2242F4DD
:100A60004D6242F00102C3F8AC22D3F8A42242F056
:100A7000F602C3F8A4225A6842F020025A60704776
:100A800000120E4000060E4000400940000001091F
:100A9000164B00221A705A70154B4FF4407159646E
:100AA00059601A6F186F024022F440721A67596633
:100AB0004FF48072A3F500631A6103F50073AC2153
:100AC000196040F2232119624FF40061596040F22D
:100AD0000221C3F820114FF0FF31D960E121996064
:100AE00004490A6050221A60704700BF5004002079
:100AF000000E0E4000E100E0074B5B6913F0020FAF
:100B000008D0054BD861044B5B6913F4007FFAD021
:100B1000002070470120704700080E4008B5154BB3
:100B20005B6913F0E00F03D04FF4A871114A116014
:100B300013F0010F12D010484278531C594203F0B1
:100B40003F0301F03F0158BF4B4201788B4206D072
:100B50000849886908490A4490704B7008BD0748E5
:100B6000074B9847044B5978024A92690B449A7094
:100B700008BD00BF00080E40500400208413080088
:100B8000050A080080F0004002E000BF81F000414B
:100B900042001FBF5FEA410392EA030F7FEA226C23
:100BA0007FEA236C6AD04FEA1262D2EB1363C1BFB3
:100BB000D218414048404140B8BF5B42192B88BF22
:100BC000704710F0004F40F4000020F07F4018BF45
:100BD000404211F0004F41F4000121F07F4118BF65
:100BE000494292EA030F3FD0A2F1010241FA03FC0D
:100BF00010EB0C00C3F1200301FA03F100F00043F5
:100C000002D5494260EB4000B0F5000F13D3B0F1BC
:100C1000807F06D340084FEA310102F10102FE2A2B
:100C200051D2B1F1004F40EBC25008BF20F001009B
:100C300040EA03007047490040EB000010F4000F49
:100C4000A2F10102EDD1B0FA80FCACF1080CB2EBDC
:100C50000C0200FA0CF0AABF00EBC250524218433B
:100C6000BCBFD0401843704792F0000F81F40001E0
:100C700006BF80F400000132013BB5E74FEA4103B3
:100C80007FEA226C18BF7FEA236C21D092EA030F1F
:100C900004D092F0000F08BF0846704790EA010F99
:100CA0001CBF0020704712F07F4F04D1400028BFC6
:100CB00040F00040704712F100723CBF00F50000A8
:100CC000704700F0004343F0FE4040F400007047DE
:100CD0007FEA226216BF08467FEA2363014642028A
:100CE00006BF5FEA412390EA010F40F4800070479D
:100CF0004FF0000304E000BF10F0004348BF404243
:100D00005FEA000C08BF704743F0964301464FF07E
:100D100000001CE050EA010208BF70474FF00003DA
:100D20000AE000BF50EA010208BF704711F000431B
:100D300002D5404261EB41015FEA010C02BF8446EB
:100D40000146002043F0B64308BFA3F18053A3F54A
:100D50000003BCFA8CF2083AA3EBC25310DB01FA91
:100D600002FC634400FA02FCC2F12002BCF1004F15
:100D700020FA02F243EB020008BF20F001007047A6
:100D800002F1200201FA02FCC2F1200250EA4C00FA
:100D900021FA02F243EB020008BF20EADC70704740
:100DA0004FF0FF0C1CEAD0521EBF1CEAD15392EA4E
:100DB0000C0F93EA0C0F6FD01A4480EA010C40022A
:100DC00018BF5FEA41211ED04FF0006343EA501084
:100DD00043EA5111A0FB01310CF00040B1F5000FC6
:100DE0003EBF490041EAD3715B0040EA010062F175
:100DF0007F02FD2A1DD8B3F1004F40EBC25008BF5F
:100E000020F00100704790F0000F0CF0004C08BF7C
:100E100049024CEA502040EA51207F3AC2BFD2F149
:100E2000FF0340EAC250704740F400004FF0000357
:100E3000013A5DDC12F1190FDCBF00F00040704791
:100E4000C2F10002410021FA02F1C2F1200200FACF
:100E500002FC5FEA310040F1000053EA4C0308BF96
:100E600020EADC70704792F0000F00F0004C02BFE7
:100E7000400010F4000F013AF9D040EA0C0093F062
:100E8000000F01F0004C02BF490011F4000F013BBC
:100E9000F9D041EA0C018FE70CEAD15392EA0C0F2A
:100EA00018BF93EA0C0F0AD030F0004C18BF31F095
:100EB000004CD8D180EA010000F00040704790F06B
:100EC000000F17BF90F0004F084691F0000F91F00F
:100ED000004F14D092EA0C0F01D142020FD193EAD5
:100EE0000C0F03D14B0218BF084608D180EA01005D
:100EF00000F0004040F0FE4040F40000704740F039
:100F0000FE4040F4400070474FF0FF0C1CEAD05206
:100F10001EBF1CEAD15392EA0C0F93EA0C0F69D062
:100F2000A2EB030280EA010C49024FEA402037D0CD
:100F30004FF0805343EA111143EA10130CF00040C4
:100F40008B4238BF5B0042F17D024FF4000C8B42B4
:100F500024BF5B1A40EA0C00B3EB510F24BFA3EB94
:100F6000510340EA5C00B3EB910F24BFA3EB910364
:100F700040EA9C00B3EBD10F24BFA3EBD10340EABE
:100F8000DC001B0118BF5FEA1C1CE0D1FD2A3FF604
:100F900050AF8B4240EBC25008BF20F001007047B9
:100FA0000CF0004C4CEA50207F32C2BFD2F1FF035C
:100FB00040EAC250704740F400004FF00003013A8D
:100FC00037E792F0000F00F0004C02BF400010F431
:100FD000000F013AF9D040EA0C0093F0000F01F045
:100FE000004C02BF490011F4000F013BF9D041EA67
:100FF0000C0195E70CEAD15392EA0C0F08D142029A
:101000007FF47DAF93EA0C0F7FF470AF084676E76C
:1010100093EA0C0F04D14B023FF44CAF08466EE745
:1010200030F0004C18BF31F0004CCAD130F0004213
:101030007FF45CAF31F000437FF43CAF5FE700BF6B
:101040004FF0FF3C06E000BF4FF0010C02E000BF94
:101050004FF0010C4DF804CD4FEA40024FEA410336
:101060007FEA226C18BF7FEA236C11D001B052EAEC
:10107000530C18BF90EA010F58BFB2EB030088BFB2
:10108000C81738BF6FEAE17018BF40F00100704721
:101090007FEA226C02D15FEA402C05D17FEA236C03
:1010A000E4D15FEA412CE1D05DF8040B704700BF4A
:1010B000844608466146FFE70FB5FFF7C9FF0028E1
:1010C00048BF10F1000F0FBD4DF808EDFFF7F4FF1A
:1010D0000CBF012000205DF808FB00BF4DF808EDB3
:1010E000FFF7EAFF34BF012000205DF808FB00BFD6
:1010F0004DF808EDFFF7E0FF94BF012000205DF8F8
:1011000008FB00BF4DF808EDFFF7D2FF94BF0120A8
:1011100000205DF808FB00BF4DF808EDFFF7C8FFA1
:1011200034BF012000205DF808FB00BF4FEA4002F9
:10113000B2F1FE4F0FD34FF09E03B3EB12620DD905
:101140004FEA002343F0004310F0004F23FA02F06F
:1011500018BF404270474FF00000704712F1610F16
:1011600001D1420205D110F0004008BF6FF00040ED
:1011700070474FF00000704742000ED2B2F1FE4FB0
:101180000BD34FF09E03B3EB126209D44FEA002356
:1011900043F0004323FA02F070474FF0000070471D
:1011A00012F1610F01D1420202D14FF0FF307047BE
:1011B0004FF00000704700BF70B50F4E0F4D761B0B
:1011C000B61018BF002405D0013455F8043B9847E9
:1011D000A642F9D10A4E0B4D00F0E6F8761BB61088
:1011E00018BF002406D0013455F8043B9847A642A6
:1011F000F9D170BD70BD00BFB4130800B41308006E
:10120000BC130800B4130800024B13B1024800F0ED
:1012100005B87047000000002912080000230146AD
:101220001A46184600F01EB838B50A4C0A4D641B21
:10123000A4100AD004F18043013B05EB8305013C77
:1012400055F804399847002CF9D1BDE8384000F032
:10125000B5B800BFCC130800C8130800704700BF22
:10126000704700BF2DE9F8432C4D06462868984684
:101270000F469146FFF7F2FF294B1C68D4F848311E
:10128000002B3ED05A681F2A1CDC02F1010E76B1F9
:10129000012103EB8204C4F88890D3F888019140BF
:1012A0000843022EC3F88801C4F8088123D0023213
:1012B000C3F804E0286843F82270FFF7D1FF00204C
:1012C000BDE8F883174B0BB34FF4C870AFF3008041
:1012D0000346D8B10020D4F848114FF0010E5860F1
:1012E00019600246C4F84831C3F88801C3F88C017C
:1012F000002EDCD0CCE7D3F88C010143C3F88C116D
:10130000D5E704F5A673C4F84831BBE72868FFF7B2
:10131000A7FF4FF0FF30BDE8F88300BF3004002086
:10132000A41308000000000043414E30206D657397
:1013300073616765206172726976656420696E20E9
:101340006E6F6E2D75736564206D61696C626F7868
:101350000A0D00004D4F544F5220504F53203A2059
:101360002564200D0A000000555555555555555515
:101370005555203A202564200D0A0000286E756C12
:101380006C2900004552523A20554152542052587F
:10139000206275666665722069732066756C6C0ADA
:1013A0000D00000008000020F8B500BFF8BC08BC24
:1013B0009E4670470912080019010800F8B500BFE1
:0C13C000F8BC08BC9E467047F500080011
:1013CC0000093D000000000000000000F4020020B5
:1013DC005C030020C403002000000000000000009B
:1013EC0000000000000000000000000000000000F1
:1013FC0000000000000000000000000000000000E1
:10140C0000000000000000000000000000000000D0
:10141C0000000000000000000000000000000000C0
:10142C0000000000000000000000000000000000B0
:10143C0000000000000000000000000000000000A0
:10144C000000000000000000000000000000000090
:10145C000000000000000000000000000000000080
:10146C000000000000000000000000000000000070
:10147C0001000000000000000E33CDAB34126DE60D
:10148C00ECDE05000B000000000000000000000076
:10149C000000000000000000000000000000000040
:1014AC000000000000000000000000000000000030
:1014BC000000000000000000000000000000000020
:1014CC000000000000000000000000000000000010
:0417FC009404002031
:040000038000000079
:00000001FF
