S011000070696E675F706F6E672E7372656352
S11300000C9438000C9455000C9455000C94550035
S11300100C9455000C9455000C9455000C94550008
S11300200C9455000C9455000C9455000C945500F8
S11300300C9455000C9455000C9455000C945500E8
S11300400C9455000C9455000C9455000C945500D8
S11300500C9455000C9455000C9455000C945500C8
S11300600C9455000C9455000C9455000C945500B8
S113007011241FBECFEFD4E0DEBFCDBF11E0A0E05E
S1130080B1E0E2E3F1E102C005900D92A437B107BB
S1130090D9F721E0A4E7B1E001C01D92A538B20769
S11300A0E1F70E949B020C9497080C94000082E0F4
S11300B087BB80E882BD87B5806287BD87B58864C9
S11300C087BD87B5816087BD089521E02093001422
S11300D020E030E060E070E00CC0409100145CE38C
S11300E05A95F1F72817390711F4642F70E02F5F40
S11300F03F4F243031058CF3CB0108950E94520305
S113010065E088E20E94090361EB89E20E94090329
S113011063E08AE20E94090340E060EE8FE00E94FF
S1130120680308950F931F93CF93DF938C01FC0111
S113013060817181769567957695679576956795D3
S113014081E30E940903F80160816295660F607E75
S113015082E30E940903F801628185E30E94090396
S1130160C0E0D0E009C0F801EC0FFD1F63818C2FC3
S11301708A5C0E9409032196F801828190E0C817E5
S1130180D9078CF380E090E00E941F03DF91CF91A8
S11301901F910F9108950F931F93CF93DF9300D076
S11301A000D01F92CDB7DEB781E090E00E946500D9
S11301B004E711E0F801808380E090E00E9465008C
S11301C0F801818385E0DE01119601900D928A95F4
S11301D0E1F729813A814B815C816D8170E080E097
S11301E090E00F900F900F900F900F90DF91CF91B0
S11301F01F910F910895CF9381E090E00E946500D4
S1130200C82F80E090E00E946500209174016C2F5B
S113021070E030E0261B370BA90122F44427552750
S1130220421B530BFA0120917501A82FB0E030E076
S11302302A1B3B0BA90122F444275527421B530BCD
S113024021E03F970CF020E091E04F3051050CF095
S113025090E0922319F590917401691B71099B0137
S113026022F422273327261B370B90917501A91BF3
S1130270B109AD0122F4442755274A1B5B0B4217F1
S1130280530734F4809174018C1750F483E00BC04D
S113029090917501981730F480E005C084E003C0A4
S11302A082E001C081E0CF910895CF93DF93CDB771
S11302B0DEB72A970FB6F894DEBF0FBECDBF0E94FB
S11302C0FB00823009F489C030F4882359F081306E
S11302D009F4C7C00EC1833009F441C0843009F465
S11302E004C107C180E090E00E946500E4E7F1E00A
S11302F02181821B91099C0144E6429FC001439FD6
S1130300900D112421816FEF70E0621B71090E942E
S11303100204CB01992324F488279927861B970B81
S11303208F8381E090E00E946500E4E7F1E02081A2
S1130330821B91099C0144E6429FC001439F900D9A
S11303401124608170E00E940204CB01992324F4FB
S113035088279927861B970B8E831886CAC081E04D
S113036090E00E946500E4E7F1E02081821B91099E
S11303709C0144E6429FC001439F900D11242081BB
S11303806FEF70E0621B71090E940204CB01992394
S113039024F488279927861B970B8E8380E090E0AE
S11303A00E946500E4E7F1E02181821B91099C0130
S11303B044E6429FC001439F900D1124618170E087
S11303C00E940204CB01992324F488279927861BD1
S11303D0970B8F8383E088878CC081E090E00E9434
S11303E06500E4E7F1E02081821B91099C0144E669
S11303F0429FC001439F900D1124408123E030E0CF
S1130400241B3109B90122F466277727621B730B79
S11304100E940204CB01992324F488279927861B80
S1130420970B8E8380E090E00E946500E4E7F1E0A2
S11304302181821B91099C0144E6429FC001439F94
S1130440900D1124618170E00E940204CB01992374
S113045024F488279927861B970B8F8382E088874B
S113046048C080E090E00E946500E4E7F1E021816B
S1130470821B91099C0144E6429FC001439F900D59
S11304801124418123E030E0241B3109B90122F415
S113049066277727621B730B0E940204CB01992302
S11304A024F488279927861B970B8F8381E090E09B
S11304B00E946500E4E7F1E02081821B91099C0120
S11304C044E6429FC001439F900D1124608170E077
S11304D00E940204CB01992324F488279927861BC0
S11304E0970B8E8381E0888704C01E821F8284E07C
S11304F0888785E0FE013696DE01119601900D9203
S11305008A95E1F729813A814B815C816D8170E0A4
S113051080E090E02A960FB6F894DEBF0FBECDBF00
S1130520DF91CF910895859B03C080E090E008950A
S113053081E090E00895CF93DF93CDB7DEB7609765
S11305400FB6F894DEBF0FBECDBF8FE190E00E94DE
S1130550F5030E94E2030E9457000E94CB000E9410
S113056089030E947E0082E087B986B18E7F86B9B6
S11305708BB787708BBF86B78E7F86BF8AB7806242
S11305808ABF789484E08B8386E390E09A8389839E
S11305900E9455012C873D874E875F87688B0E9498
S11305A093029D859C832C852D833E853E838F837A
S11305B01F923F931F922F931F929F9386E091E087
S11305C09F938F930E947504CE0101960E9492001E
S11305D02FEF8FE791E0215080409040E1F700C079
S11305E000C00FB6F894DEBF0FBECDBFD1CFCF93FE
S11305F0C82F88B38F7E88BB83E00E94D7038C2FDB
S11306000E94D7030E94DB0398B3906198BBCF91FB
S11306100895CF93DF93D82FC62F88B38F7E88BBDE
S113062082E00E94D7038D2F0E94D7038C2F0E9453
S1130630D70388B3806188BBDF91CF9108959C0173
S113064098B39F7E98BB2130310579F01CF4232B9D
S113065041F017C02230310561F02330310569F0D3
S113066010C081E80E94D7030FC082E80E94D7031C
S11306700BC084E80E94D70307C087E80E94D70311
S113068003C080E80E94D70388B3806188BB0895C3
S113069088B38F7E88BB80EC0E94D70388B38061C7
S11306A088BB08950E94D0030E9448038EE00E94F4
S11306B0F702807E803851F08CE391E09F938F9312
S11306C00E9475040F900F9081E0089580E00895D2
S11306D01F93CF93DF93182FD62FC42F88B38F7E09
S11306E088BB85E00E94D703812F0E94D7038D2FFA
S11306F00E94D7038C2F0E94D70388B3806188BBE4
S1130700DF91CF911F91089560E070E00E94E903AA
S11307100895E9E7F1E0108211828EEA0E948403D1
S113072081EA0E9484038AED0E94840382E10E948C
S1130730840388EC0E94840388EA0E9484038FE384
S11307400E94840385ED0E94840380E80E94840350
S113075081E80E94840380E50E94840389ED0E945D
S1130760840381E20E94840380E20E94840382E085
S11307700E9484038BED0E94840380E30E9484031F
S11307808DEA0E94840380E00E94840384EA0E942C
S1130790840386EA0E9484038FEA0E9484030895F6
S11307A087B3806B87BB8DB181658DB908958FB98F
S11307B0779BFECF089580E00E94D703779BFECFFE
S11307C08FB1089585B7806885BF80B7886080BF82
S11307D00895FB01F05F808308955D9BFECF8CB983
S11307E008955F9BFECF8CB1089590BD89B988E1CF
S11307F08AB98EE880BD61EF73E08DEE93E00E94CC
S11308002A04089597FB072E16F4009407D077FD69
S113081009D00E94160407FC05D03EF490958195FA
S11308209F4F0895709561957F4F0895AA1BBB1B38
S113083051E107C0AA1FBB1FA617B70710F0A61BDC
S1130840B70B881F991F5A95A9F780959095BC01FD
S1130850CD0108950F931F93CF93DF93009731F445
S11308606115710519F480E090E03AC08B01EC0148
S11308706EE070E081E090E00E946C06FC01892B40
S113088091F380E883830115110571F013870287C2
S113089081E8838380917B0190917C01892B21F4F1
S11308A0F0937C01E0937B012097C9F0D187C08746
S11308B083818260838380917D0190917E01892B65
S11308C071F4F0937E01E0937D0180917F0190911A
S11308D08001892B21F4F0938001E0937F01CF0103
S11308E0DF91CF911F910F910895A0E0B0E0EBE765
S11308F0F4E00C947008AE014B5F5F4FFA01619114
S11309007191AF0180917D0190917E010E948B04D1
S1130910E2E00C948C08ABE0B0E0E1E9F4E00C9484
S113092060086C017B018A01FC01178216828381B5
S113093081FFCCC1CE0101963C01F6019381F70100
S113094093FD859193FF81917F01882309F4BAC1B6
S1130950853239F493FD859193FF81917F0185322E
S113096029F4B60190E00E94C607E7CF912C212C10
S1130970312CFFE1F315D8F08B3279F038F4803262
S113098079F08332A1F4232D20611DC08D3261F0F2
S1130990803369F4232D216016C0832D8260382EA4
S11309A0E32DE4603E2E2AC0F32DF8601DC037FC11
S11309B02DC020ED280F2A3040F08E32B9F436FCD9
S11309C081C1232D2064322E19C036FE06C08AE070
S11309D0989E200D1124922E11C0EAE02E9E200D27
S11309E01124222EF32DF0623F2E08C08C3621F400
S11309F0832D8068382E02C0883641F4F70193FDB8
S1130A00859193FF81917F018111B3CF982F9F7DB1
S1130A109554933028F40C5F1F4F9FE399830DC0C6
S1130A20833631F0833771F0833509F059C021C022
S1130A30F801808189830E5F1F4F88248394912C51
S1130A40530113C02801F2E04F0E511CF801A0809D
S1130A50B18036FE03C0692D70E002C06FEF7FEFF6
S1130A60C5010E94BB074C018201F32DFF773F2E85
S1130A7016C0280122E0420E511CF801A080B1806A
S1130A8036FE03C0692D70E002C06FEF7FEFC50131
S1130A900E94A9074C01F32DF0683F2E820133FC1C
S1130AA01BC0822D90E088169906B0F4B60180E24E
S1130AB090E00E94C6072A94F4CFF50137FC859193
S1130AC037FE81915F01B60190E00E94C6072110B4
S1130AD02A9421E0821A91088114910471F7E8C0E4
S1130AE0843611F0893641F5F80137FE07C060817C
S1130AF07181828193810C5F1F4F08C06081718175
S1130B00072E000C880B990B0E5F1F4FF32DFF76F9
S1130B103F2E97FF09C090958095709561957F4F02
S1130B208F4F9F4FF0683F2E2AE030E0A3010E94D0
S1130B300208882E861845C0853731F4232D2F7E70
S1130B40B22E2AE030E025C0932D997FB92E8F363E
S1130B50C1F018F4883579F0B5C0803719F08837BA
S1130B6021F0B0C0E92FE061BE2EB4FE0DC0FB2D14
S1130B70F460BF2E09C034FE0AC0292F2660B22EAD
S1130B8006C028E030E005C020E130E002C020E1EA
S1130B9032E0F801B7FE07C06081718182819381E0
S1130BA00C5F1F4F06C06081718180E090E00E5F92
S1130BB01F4FA3010E940208882E8618FB2DFF7781
S1130BC03F2E36FE0DC0232D2E7FA22E891458F4FD
S1130BD034FE0BC032FC09C0832D8E7EA82E05C0C6
S1130BE0B82CA32C03C0B82C01C0B92CA4FE0FC090
S1130BF0FE01E80DF11D8081803321F49A2D997E48
S1130C00A92E09C0A2FE06C0B394B39404C08A2DD1
S1130C10867809F0B394A3FC11C0A0FE06C0B214F8
S1130C2088F4280C922C9B180EC0B21460F4B60100
S1130C3080E290E00E94C607B394F7CFB21418F490
S1130C402B1802C0982C212CA4FE10C0B60180E3FE
S1130C5090E00E94C607A2FE17C0A1FC03C088E76B
S1130C6090E002C088E590E0B6010CC08A2D867839
S1130C7059F0A1FE02C08BE201C080E2A7FC8DE224
S1130C80B60190E00E94C607891438F4B60180E3E7
S1130C9090E00E94C6079A94F7CF8A94F301E80D76
S1130CA0F11D8081B60190E00E94C6078110F5CF46
S1130CB0222009F442CEB60180E290E00E94C607E9
S1130CC02A94F6CFF6018681978102C08FEF9FEFB9
S1130CD02B96E2E10C947C080F931F93CF93DF9340
S1130CE0869F8001879F100D969F100D1124C801C7
S1130CF00E948806EC01009729F0A80160E070E0EA
S1130D000E94B407CE01DF91CF911F910F910895F6
S1130D100F931F93CF93DF938230910510F482E0F9
S1130D2090E0E0918301F091840120E030E0A0E0C4
S1130D30B0E0309719F14081518102811381481745
S1130D405907C8F08417950769F4109731F0129683
S1130D500C93129713961C9327C00093830110934E
S1130D60840122C02115310519F04217530718F4E4
S1130D709A01BD01EF01DF01F801DBCF2115310537
S1130D80F9F0281B390B2430310580F48A819B81CA
S1130D906115710521F0FB019383828304C0909354
S1130DA0840180938301FE01329644C0FE01E20F68
S1130DB0F31F8193919322503109398328833AC0D8
S1130DC02091810130918201232B41F42091020171
S1130DD0309103013093820120938101209100011D
S1130DE0309101012115310541F42DB73EB74091F1
S1130DF0040150910501241B350BE0918101F09110
S1130E008201E217F307A0F42E1B3F0B28173907C2
S1130E1078F0AC014E5F5F4F2417350748F04E0F52
S1130E205F1F50938201409381018193919302C08B
S1130E30E0E0F0E0CF01DF91CF911F910F91089591
S1130E40CF93DF93009709F481C0FC01329713829A
S1130E501282A0918301B0918401109781F42081C2
S1130E603181820F931F20918101309182012817D3
S1130E70390751F5F0938201E093810167C0ED01D8
S1130E8020E030E0CE17DF0740F44A815B819E0109
S1130E9041155105F1F0EA01F5CFD383C2834081B6
S1130EA05181840F951FC817D90759F488819981F6
S1130EB0840F951F0296918380838A819B819383FB
S1130EC082832115310529F4F0938401E093830191
S1130ED03DC0E901FB83EA8349915991C40FD51FB1
S1130EE0EC17FD0761F480819181840F951F0296B0
S1130EF0E90199838883828193819B838A83E0E0DB
S1130F00F0E012968D919C911397009719F0FD01D2
S1130F10DC01F7CF8D919C9111979D012E5F3F4F7E
S1130F20820F931F20918101309182012817390784
S1130F3069F4309729F4109284011092830102C05D
S1130F4013821282B0938201A0938101DF91CF9129
S1130F500895FC010590615070400110D8F7809508
S1130F6090958E0F9F1F0895DC0101C06D93415031
S1130F705040E0F70895FC01615070400190011069
S1130F80D8F7809590958E0F9F1F08950F931F9308
S1130F90CF93DF93FB01238121FD03C08FEF9FEFEC
S1130FA02CC022FF16C04681578124813581421707
S1130FB0530744F4A081B1819D012F5F3F4F3183DA
S1130FC020838C93268137812F5F3F4F378326837D
S1130FD014C08B01EC01FB010084F185E02D09951F
S1130FE0892BE1F6D80116968D919C91179701965D
S1130FF017969C938E931697CE01DF91CF911F91F4
S11310000F910895FA01AA27283051F1203181F176
S1131010E8946F936E7F6E5F7F4F8F4F9F4FAF4FFC
S1131020B1E03ED0B4E03CD0670F781F891F9A1F0F
S1131030A11D680F791F8A1F911DA11D6A0F711DC3
S1131040811D911DA11D20D009F468943F912AE0CF
S1131050269F11243019305D3193DEF6CF010895B7
S1131060462F4770405D4193B3E00FD0C9F7F6CFE8
S1131070462F4F70405D4A3318F0495D31FD4052B0
S1131080419302D0A9F7EACFB4E0A6959795879546
S113109077956795BA95C9F7009761057105089525
S11310A09B01AC010A2E06945795479537952795D1
S11310B0BA95C9F7620F731F841F951FA01D089569
S11310C02F923F924F925F926F927F928F929F9254
S11310D0AF92BF92CF92DF92EF92FF920F931F9342
S11310E0CF93DF93CDB7DEB7CA1BDB0B0FB6F894F3
S11310F0DEBF0FBECDBF09942A88398848885F8433
S11311006E847D848C849B84AA84B984C884DF80A3
S1131110EE80FD800C811B81AA81B981CE0FD11D87
S11311200FB6F894DEBF0FBECDBFED010895F8945D
S1051130FFCFEB
S1131132000085012000566572746963616C202584
S11311426420202020202020486F72697A6F6E74F8
S1131152616C2025642020202020444952454354B8
S1131162494F4E203A202564200D0A00204D435059
S113117232353135206973204E4F5420696E206315
S11311826F6E66696775726174696F6E206D6F64E4
S1131192652061667465722072657365742021200E
S10711A26E200000B7
S9030000FC
