:100000000C94B4010C94D1010C94D1010C94D10145
:100010000C94D1010C94D1010C94D1010C94D10118
:100020000C94D1010C94D1010C94D1010C94D10108
:100030000C94D1010C94D1010C94D1010C94D101F8
:100040000C94D1010C94D1010C94D1010C94D101E8
:100050000C94D1010C94D1010C94D1010C94D101D8
:100060000C94D1010C94D1010C94D1010C94D101C8
:10007000000000000000000000065F5F06000000B6
:100080000007070007070000147F7F147F7F14001C
:10009000242E6B6B3A120000466630180C66620024
:1000A000307A4F5D377A48000407030000000000F3
:1000B000001C3E63410000000041633E1C00000044
:1000C000082A3E1C1C3E2A0808083E3E080800007C
:1000D00000A0E06000000000080808080808000010
:1000E00000006060000000006030180C0603010092
:1000F0003E7F594D7F3E000042427F7F40400000DE
:10010000627359496F660000226349497F360000D7
:10011000181C16137F7F1000276745457D390000A6
:100120003C7E4B4979300000036371190F070000D2
:10013000367F49497F360000064F49693F1E00005F
:1001400000006C6C0000000000A0EC6C00000000DF
:10015000081C366341000000141414141414000029
:10016000004163361C080000020351590F060000CD
:100170003E7F415D5D1F1E007C7E13137E7C000070
:10018000417F7F49497F36001C3E63414163220025
:10019000417F7F41637F1C00417F7F495D41630058
:1001A000417F7F491D0103001C3E63415173720072
:1001B0007F7F08087F7F000000417F7F41000000B3
:1001C000307040417F3F0100417F7F081C77630012
:1001D000417F7F41406070007F7F060C067F7F007B
:1001E0007F7F060C187F7F001C3E6341633E1C002E
:1001F000417F7F49090F06001E3F21717F5E00008D
:10020000417F7F19396F460026674D597B320000C8
:1002100003417F7F410300007F7F40407F7F0000DC
:100220001F3F60603F1F00007F7F3018307F7F00DE
:1002300063771C081C776300074F78784F0700002E
:100240006773594D47637100007F7F414100000093
:100250000103060C183060000041417F7F00000060
:10026000080C0603060C0800808080808080808057
:100270000000030704000000207454543C78400040
:10028000413F7F44447C3800387C44446C28000063
:10029000307848493F7F4000387C54545C18000057
:1002A000487E7F490302000098BCA4A4F87C0400A7
:1002B000417F7F08047C780000447D7D4000000081
:1002C00040C484FD7D000000417F7F10386C4400F5
:1002D00000417F7F400000007C7C0C180C7C780083
:1002E0007C7C04047C780000387C44447C3800002A
:1002F00084FCF8A4243C1800183C24A4F8FC8400D6
:10030000447C78441C180000485C54547424000059
:1003100000043E7F442400003C7C40403C7C400084
:100320001C3C60603C1C00003C7C6030607C3C00FD
:10033000446C3810386C44009CBCA0A0FC7C0000CD
:100340004C64745C4C64000008083E774141000036
:1003500000000077770000004141773E0808000068
:10036000020301030203010011241FBECFEFD4E0FA
:10037000DEBFCDBF13E0A0E0B1E0ECEBF9E002C0DE
:1003800005900D92AC33B107D9F723E0ACE3B3E0AD
:1003900001C01D92AC34B207E1F70E9415020C9423
:1003A000DC040C94000082E087BB80E882BD87B546
:1003B000806287BD87B5886487BD87B5816087BD4A
:1003C000089521E02093001420E030E060E070E028
:1003D0000CC0409100145CE35A95F1F728173907D7
:1003E00011F4642F70E02F5F3F4F243031058CF300
:1003F000CB010895CF93DF9380E090E00E94E1016C
:10040000CCE3D3E09983888381E090E00E94E1010E
:100410009B838A8360913C0370913D0380913E03EE
:1004200090913F03DF91CF9108958FE190E00E947A
:1004300040030E941A030E94D3010E94FA010E9405
:100440002F020E9425038FEF86B982E087B980E0F2
:1004500090E0089560E070E00E9421030895E0E4D8
:10046000F3E0108211828EEA0E942A0281EA0E9441
:100470002A028AED0E942A0282E10E942A0288EC66
:100480000E942A0288EA0E942A028FE30E942A021E
:1004900085ED0E942A0280E80E942A0281E80E94DB
:1004A0002A0280E50E942A0289ED0E942A0281E246
:1004B0000E942A0280E20E942A0282E00E942A020E
:1004C0008BED0E942A0280E30E942A028DEA0E949C
:1004D0002A0280E00E942A0284EA0E942A0286EA16
:1004E0000E942A028FEA0E942A0208958093400304
:1004F000806B0E942A020895CF93C82F80914003F9
:100500000E94760260E072E08C2F0E942103CF915E
:100510000895CF93C82F809341038F700E942A02C1
:100520008C2F807F20E030E003C086952F5F3F4F07
:1005300024303105D4F380610E942A02CF910895BE
:10054000CF93DF9380E090E00E948902C0E0D0E08A
:1005500004C080E00E947C022196C038D105CCF313
:1005600080E090E00E948902DF91CF910895809110
:1005700040038F5F0E94760280E090E00E94890233
:100580000895CF93DF9380E00E947602C0E0D0E030
:1005900006C0CE010E94A0020E94B7022196C83078
:1005A000D105BCF3DF91CF9108950F931F93CF93A3
:1005B000DF93082F10E000521109C0E0D0E00FC017
:1005C000F801EE0FFF1FEE0FFF1FEE0FFF1FEC0FE6
:1005D000FD1FE059FF4F84910E947C022196C83094
:1005E000D10574F3DF91CF911F910F910895EF9290
:1005F000FF920F931F93CF93DF937C01FC01019037
:100600000020E9F731978F01081B190BC0E0D0E0FB
:1006100007C0F701EC0FFD1F80810E94D5022196D3
:10062000C017D107B4F3DF91CF911F910F91FF90C5
:10063000EF90089585B7806885BF80B7886080BFD8
:100640000895FB01F05F808308950E94C10280E05D
:100650000E94760280E090E00E94890281E40E947C
:10066000D5020E94B7028AE293E00E94F702089541
:100670005D9BFECF8CB908955F9BFECF8CB1089532
:1006800090BD89B988E18AB98EE880BD6CE373E0DA
:1006900088E393E00E944D0308950F931F93CF9337
:1006A000DF93009731F46115710519F480E090E053
:1006B0003AC08B01EC016EE070E081E090E00E94B6
:1006C0009803FC01892B91F380E8838301151105C0
:1006D00071F01387028781E88383809142039091B0
:1006E0004303892B21F4F0934303E09342032097C3
:1006F000C9F0D187C087838182608383809144035E
:1007000090914503892B71F4F0934503E0934403E2
:100710008091460390914703892B21F4F09347037E
:10072000E0934603CF01DF91CF911F910F91089580
:100730000F931F93CF93DF93869F8001879F100DA8
:10074000969F100D1124C8010E94B403EC0100977C
:1007500029F0A80160E070E00E94D504CE01DF918D
:10076000CF911F910F9108950F931F93CF93DF9314
:100770008230910510F482E090E0E0914A03F0911C
:100780004B0320E030E0A0E0B0E0309719F1408169
:1007900051810281138148175907C8F084179507C2
:1007A00069F4109731F012960C93129713961C93DC
:1007B00027C000934A0310934B0322C02115310533
:1007C00019F04217530718F49A01BD01EF01DF0138
:1007D000F801DBCF21153105F9F0281B390B243046
:1007E000310580F48A819B816115710521F0FB013F
:1007F0009383828304C090934B0380934A03FE014A
:10080000329644C0FE01E20FF31F81939193225070
:100810003109398328833AC0209148033091490334
:10082000232B41F4209102013091030130934903BD
:1008300020934803209100013091010121153105D9
:1008400041F42DB73EB74091040150910501241B9E
:10085000350BE0914803F0914903E217F307A0F448
:100860002E1B3F0B2817390778F0AC014E5F5F4F06
:100870002417350748F04E0F5F1F509349034093EC
:1008800048038193919302C0E0E0F0E0CF01DF9153
:10089000CF911F910F910895CF93DF93009709F4A3
:1008A00081C0FC01329713821282A0914A03B09159
:1008B0004B03109781F420813181820F931F209187
:1008C0004803309149032817390751F5F09349033C
:1008D000E093480367C0ED0120E030E0CE17DF076A
:1008E00040F44A815B819E0141155105F1F0EA0116
:1008F000F5CFD383C28340815181840F951FC817E0
:10090000D90759F488819981840F951F02969183A4
:1009100080838A819B81938382832115310529F409
:10092000F0934B03E0934A033DC0E901FB83EA8364
:1009300049915991C40FD51FEC17FD0761F48081CF
:100940009181840F951F0296E901998388838281A2
:1009500093819B838A83E0E0F0E012968D919C91D5
:100960001397009719F0FD01DC01F7CF8D919C9151
:1009700011979D012E5F3F4F820F931F20914803D7
:10098000309149032817390769F4309729F41092F8
:100990004B0310924A0302C013821282B0934903A0
:1009A000A0934803DF91CF910895DC0101C06D93BE
:0C09B00041505040E0F70895F894FFCF4C
:1009BC0000004C03200059454141480A0D00537476
:1009CC00617274696E67205352414D207465737463
:1009DC002E2E2E0057726974652070686173652025
:1009EC006572726F723A206578745F72616D5B2507
:1009FC0034645D203D2025303258202873686F7593
:100A0C006C642062652025303258290A00526574C6
:100A1C0072696576616C20706861736520657272AD
:100A2C006F723A206578745F72616D5B2534645D1A
:100A3C00203D2025303258202873686F756C642057
:100A4C0062652025303258290A005352414D2074DA
:100A5C0065737420636F6D706C6574656420776961
:100A6C007468200A253464206572726F7273206971
:100A7C006E20777269746520706861736520616E91
:100A8C0064200A253464206572726F727320696E5B
:100A9C002072657472696576616C2070686173652B
:100AAC000A0A0063000A20414443200A0D002D2D40
:100ABC002D2D2D2D2D2D2D2D2D2D2D2D2D2D2D2D5A
:100ACC002D2D2D2D2D2D2D2D2D2D2D2D2D2D2D2D4A
:100ADC002D2D2D2D2D2D2D2D2D2D2D2D2D2D2D2D3A
:100AEC002D2D2D2D2D2D2D2D2D2D2D2D2D2D2D2D2A
:100AFC002D2D2D2D2D2D2D2D2D2D2D2D2D2D2D2D1A
:100B0C002D2D2D2D2D2D2D2D2D2D2D2D2D2D2D2D09
:100B1C002D2D2D2D2D2D2D2D2D2D2D2D2D2D2D2DF9
:100B2C002D2D2D2D2D2D2D2D2D2D2D2D2D2D2D2DE9
:100B3C002D2D2D2D2D2D2D2D2D2D2D2D2D2D2D2DD9
:100B4C002D2D2D2D2D2D2D2D2D2D2D2D2D2D2D2DC9
:100B5C002D2D2D0D004C65667420627574746F6EAE
:100B6C00203A202564202020526967687420627521
:100B7C0074746F6E203A20256420204A6F79737448
:100B8C0069636B20627574746F6E203A2025642043
:100B9C000A0D4C65667420736C69646572203A208A
:100BAC002564202020526967687420736C69646521
:100BBC0072203A20256420200A0D4A6F79737469DB
:100BCC00636B20706F73203A2058203D20202564E1
:100BDC002059203D2025640D0A0056495645204CCD
:0C0BEC0041204652414E434520210000AC
:00000001FF
