S011000070696E675F706F6E672E7372656352
S11300000C9438000C9455000C9455000C94550035
S11300100C9455000C9455000C9455000C94550008
S11300200C9455000C9455000C9455000C945500F8
S11300300C9455000C9455000C9455000C945500E8
S11300400C9455000C9455000C9455000C945500D8
S11300500C9455000C9455000C9455000C945500C8
S11300600C9455000C9455000C9455000C945500B8
S113007011241FBECFEFD4E0DEBFCDBF12E0A0E05D
S1130080B1E0E6E2FEE002C005900D92A631B107B0
S1130090D9F722E0A6E1B2E001C01D92A632B20770
S11300A0E1F70E9417010C9411070C94000082E000
S11300B087BB80E882BD87B5806287BD87B58864C9
S11300C087BD87B5816087BD089521E02093001422
S11300D020E030E060E070E00CC0409100145CE38C
S11300E05A95F1F72817390711F4642F70E02F5F40
S11300F03F4F243031058CF3CB0108950E94EE016B
S113010040E460EE8FE00E94040208950F931F9371
S1130110CF93DF938C01FC016081718175956795A4
S1130120759567957595679581E30E94A201F8011D
S113013060816295660F607E82E30E94A201F801ED
S1130140628185E30E94A201C0E0D0E009C0F80109
S1130150EC0FFD1F64818C2F8A5C0E94A201219602
S1130160F80182819381C817D9078CF380E090E06D
S11301700E94B801DF91CF911F910F910895EF92E2
S1130180FF920F931F93CF93DF937C0185E60E9428
S11301909001082F10E0F7011383028381E60E9487
S11301A09001C82FD0E0CC0FDD1FCC0FDD1FCC0F8A
S11301B0DD1F82E60E949001829586958770C82B88
S11301C0F701D183C083C0E0D0E009C08C2F8A59E5
S11301D00E949001F701EC0FFD1F84832196C01744
S11301E0D107A4F30E94E401C701DF91CF911F91CD
S11301F00F91FF90EF900895CF93DF9380E090E00C
S11302000E946500C6E1D2E09983888381E090E092
S11302100E9465009B838A83609116027091170285
S11302208091180290911902DF91CF9108950F9354
S11302301F93CF93DF93CDB7DEB768970FB6F894CB
S1130240DEBF0FBECDBF8FE190E00E9497020E94F7
S113025084020E9457000E94FC000E9425020E9412
S11302607E008FEF86B982E087B98BE290E09A83B3
S1130270898388E090E09C838B8382E48D8389E486
S11302808E8385E48F8392E59887898780E28A87C5
S113029081E28B87CE0105969F938F931F928BE209
S11302A08F931F9288E08F9386E091E09F938F93C2
S11302B00E94EF02CE0101960E94860008E311E03D
S11302C01F930F930E94EF02CE010D960E94BF0070
S11302D0CE0141969F938F938E858F938D858F93B7
S11302E088898F938F858F9381EB91E09F938F9370
S11302F00E94EF021F930F930E94EF020FB6F8942F
S1130300DEBF0FBECDBF80E090E068960FB6F894D4
S1130310DEBF0FBECDBFDF91CF911F910F91089526
S1130320CF93C82F88B38F7E88BB83E00E94790265
S11303308C2F0E9479020E947D0298B3906198BB31
S1130340CF910895CF93DF93D82FC62F88B38F7E94
S113035088BB82E00E9479028D2F0E9479028C2F43
S11303600E94790288B3806188BBDF91CF910895A0
S11303709C0198B39F7E98BB2130310579F01CF421
S1130380232B41F017C02230310561F023303105B1
S113039069F010C081E80E9479020FC082E80E94CF
S11303A079020BC084E80E94790207C087E80E94A2
S11303B0790203C080E80E94790281E80E947902F0
S11303C088B3806188BB089588B38F7E88BB80EC36
S11303D00E94790288B3806188BB08950E946C02F0
S11303E00E94E4018EE00E949001807E803851F0EA
S11303F08FED91E09F938F930E94EF020F900F90E7
S113040081E0089580E008951F93CF93DF93182F20
S1130410D62FC42F88B38F7E88BB85E00E947902D3
S1130420812F0E9479028D2F0E9479028C2F0E94C5
S1130430790288B3806188BBDF91CF911F910895C1
S113044060E070E00E948B020895EAE1F2E010821D
S113045011828EEA0E94200281EA0E9420028AED23
S11304600E94200282E10E94200288EC0E94200265
S113047088EA0E9420028FE30E94200285ED0E94F8
S1130480200280E80E94200281E80E94200280E588
S11304900E94200289ED0E94200281E20E94200233
S11304A080E20E94200282E00E9420028BED0E94E2
S11304B0200280E30E9420028DEA0E94200280E054
S11304C00E94200284EA0E94200286EA0E942002FE
S11304D08FEA0E942002089587B3806B87BB8DB199
S11304E081658DB98DB1877F8DB98DB18B7F8DB9C4
S11304F008958FB9779BFECF089580E00E9479021A
S1130500779BFECF8FB1089585B7806885BF80B78C
S1130510886080BF0895FB01F05F808308955D9B30
S1130520FECF8CB908955F9BFECF8CB1089590BD2A
S113053089B988E18AB98EE880BD63E972E08FE801
S113054092E00E94A40208950F931F93CF93DF9328
S1130550009731F46115710519F480E090E03AC018
S11305608B01EC016EE070E081E090E00E94E60413
S1130570FC01892B91F380E883830115110571F047
S11305801387028781E8838380911C0290911D0266
S1130590892B21F4F0931D02E0931C022097C9F0EB
S11305A0D187C08783818260838380911E0290916A
S11305B01F02892B71F4F0931F02E0931E028091B5
S11305C0200290912102892B21F4F0932102E093DF
S11305D02002CF01DF91CF911F910F910895A0E0E8
S11305E0B0E0E5EFF2E00C94EA06AE014B5F5F4F3A
S11305F0FA0161917191AF0180911E0290911F02E5
S11306000E940503E2E00C940607ABE0B0E0EBE0E7
S1130610F3E00C94DA066C017B018A01FC01178279
S11306201682838181FFCCC1CE0101963C01F60183
S11306309381F70193FD859193FF81917F01882335
S113064009F4BAC1853239F493FD859193FF819100
S11306507F01853229F4B60190E00E944006E7CF7D
S1130660912C212C312CFFE1F315D8F08B3279F049
S113067038F4803279F08332A1F4232D20611DC037
S11306808D3261F0803369F4232D216016C0832DEF
S11306908260382EE32DE4603E2E2AC0F32DF860EC
S11306A01DC037FC2DC020ED280F2A3040F08E32BB
S11306B0B9F436FC81C1232D2064322E19C036FED4
S11306C006C08AE0989E200D1124922E11C0EAE003
S11306D02E9E200D1124222EF32DF0623F2E08C0F1
S11306E08C3621F4832D8068382E02C0883641F47C
S11306F0F70193FD859193FF81917F018111B3CF20
S1130700982F9F7D9554933028F40C5F1F4F9FE3DF
S113071099830DC0833631F0833771F0833509F046
S113072059C021C0F801808189830E5F1F4F88243E
S11307308394912C530113C02801F2E04F0E511CF5
S1130740F801A080B18036FE03C0692D70E002C0BC
S11307506FEF7FEFC5010E9435064C018201F32D36
S1130760FF773F2E16C0280122E0420E511CF801EB
S1130770A080B18036FE03C0692D70E002C06FEF27
S11307807FEFC5010E9423064C01F32DF0683F2E34
S1130790820133FC1BC0822D90E088169906B0F4C8
S11307A0B60180E290E00E9440062A94F4CFF5015D
S11307B037FC859137FE81915F01B60190E00E947C
S11307C0400621102A9421E0821A91088114910490
S11307D071F7E8C0843611F0893641F5F80137FE27
S11307E007C060817181828193810C5F1F4F08C0B3
S11307F060817181072E000C880B990B0E5F1F4FCF
S1130800F32DFF763F2E97FF09C090958095709544
S113081061957F4F8F4F9F4FF0683F2E2AE030E065
S1130820A3010E947C06882E861845C0853731F4C2
S1130830232D2F7EB22E2AE030E025C0932D997F00
S1130840B92E8F36C1F018F4883579F0B5C08037E9
S113085019F0883721F0B0C0E92FE061BE2EB4FE54
S11308600DC0FB2DF460BF2E09C034FE0AC0292F31
S11308702660B22E06C028E030E005C020E130E05A
S113088002C020E132E0F801B7FE07C06081718147
S1130890828193810C5F1F4F06C06081718180E06B
S11308A090E00E5F1F4FA3010E947C06882E8618DD
S11308B0FB2DFF773F2E36FE0DC0232D2E7FA22E5B
S11308C0891458F434FE0BC032FC09C0832D8E7E8B
S11308D0A82E05C0B82CA32C03C0B82C01C0B92C79
S11308E0A4FE0FC0FE01E80DF11D8081803321F4C8
S11308F09A2D997EA92E09C0A2FE06C0B394B39482
S113090004C08A2D867809F0B394A3FC11C0A0FE1C
S113091006C0B21488F4280C922C9B180EC0B21492
S113092060F4B60180E290E00E944006B394F7CFF1
S1130930B21418F42B1802C0982C212CA4FE10C059
S1130940B60180E390E00E944006A2FE17C0A1FC1D
S113095003C088E790E002C088E590E0B6010CC0CF
S11309608A2D867859F0A1FE02C08BE201C080E294
S1130970A7FC8DE2B60190E00E944006891438F489
S1130980B60180E390E00E9440069A94F7CF8A94DF
S1130990F301E80DF11D8081B60190E00E9440064C
S11309A08110F5CF222009F442CEB60180E290E016
S11309B00E9440062A94F6CFF6018681978102C0F0
S11309C08FEF9FEF2B96E2E10C94F6060F931F93A3
S11309D0CF93DF93869F8001879F100D969F100D04
S11309E01124C8010E940205EC01009729F0A80116
S11309F060E070E00E942E06CE01DF91CF911F913E
S1130A000F9108950F931F93CF93DF938230910535
S1130A1010F482E090E0E0912402F091250220E0BD
S1130A2030E0A0E0B0E0309719F1408151810281BB
S1130A30138148175907C8F08417950769F410976C
S1130A4031F012960C93129713961C9327C00093BF
S1130A5024021093250222C02115310519F04217F2
S1130A60530718F49A01BD01EF01DF01F801DBCF50
S1130A7021153105F9F0281B390B2430310580F498
S1130A808A819B816115710521F0FB019383828327
S1130A9004C09093250280932402FE01329644C040
S1130AA0FE01E20FF31F81939193225031093983A0
S1130AB028833AC02091220230912302232B41F44F
S1130AC020910201309103013093230220932202EA
S1130AD020910001309101012115310541F42DB718
S1130AE03EB74091040150910501241B350BE09160
S1130AF02202F0912302E217F307A0F42E1B3F0B0E
S1130B002817390778F0AC014E5F5F4F241735077B
S1130B1048F04E0F5F1F50932302409322028193AB
S1130B20919302C0E0E0F0E0CF01DF91CF911F91FB
S1130B300F910895CF93DF93009709F481C0FC01CE
S1130B40329713821282A0912402B0912502109749
S1130B5081F420813181820F931F209122023091F0
S1130B6023022817390751F5F0932302E093220258
S1130B7067C0ED0120E030E0CE17DF0740F44A8182
S1130B805B819E0141155105F1F0EA01F5CFD38354
S1130B90C28340815181840F951FC817D90759F426
S1130BA088819981840F951F0296918380838A811D
S1130BB09B81938382832115310529F4F0932502C7
S1130BC0E09324023DC0E901FB83EA8349915991F2
S1130BD0C40FD51FEC17FD0761F480819181840F48
S1130BE0951F0296E90199838883828193819B836F
S1130BF08A83E0E0F0E012968D919C911397009720
S1130C0019F0FD01DC01F7CF8D919C9111979D01A5
S1130C102E5F3F4F820F931F2091220230912302B7
S1130C202817390769F4309729F410922502109295
S1130C30240202C013821282B0932302A0932202E0
S1130C40DF91CF910895FC0105906150704001102F
S1130C50D8F7809590958E0F9F1F0895DC0101C0F1
S1130C606D9341505040E0F70895FC01615070408D
S1130C7001900110D8F7809590958E0F9F1F0895CD
S1130C800F931F93CF93DF93FB01238121FD03C0B7
S1130C908FEF9FEF2CC022FF16C04681578124811D
S1130CA035814217530744F4A081B1819D012F5F20
S1130CB03F4F318320838C93268137812F5F3F4FB1
S1130CC03783268314C08B01EC01FB010084F1857A
S1130CD0E02D0995892BE1F6D80116968D919C910A
S1130CE01797019617969C938E931697CE01DF91D2
S1130CF0CF911F910F910895FA01AA27283051F13D
S1130D00203181F1E8946F936E7F6E5F7F4F8F4F38
S1130D109F4FAF4FB1E03ED0B4E03CD0670F781F97
S1130D20891F9A1FA11D680F791F8A1F911DA11D7C
S1130D306A0F711D811D911DA11D20D009F46894B5
S1130D403F912AE0269F11243019305D3193DEF65D
S1130D50CF010895462F4770405D4193B3E00FD013
S1130D60C9F7F6CF462F4F70405D4A3318F0495DFE
S1130D7031FD4052419302D0A9F7EACFB4E0A695E1
S1130D809795879577956795BA95C9F70097610503
S1130D90710508959B01AC010A2E06945795479559
S1130DA037952795BA95C9F7620F731F841F951F4E
S1130DB0A01D08952F923F924F925F926F927F925F
S1130DC08F929F92AF92BF92CF92DF92EF92FF9257
S1130DD00F931F93CF93DF93CDB7DEB7CA1BDB0B03
S1130DE00FB6F894DEBF0FBECDBF09942A883988A8
S1130DF048885F846E847D848C849B84AA84B984AF
S1130E00C884DF80EE80FD800C811B81AA81B981BA
S1130E10CE0FD11D0FB6F894DEBF0FBECDBFED01CE
S1090E200895F894FFCFD1
S1130E260000260220005452414E534D4954203DA1
S1130E363E206C656E677468203A20202564200A7B
S1130E460D6964203A202564200A0D6461746120CA
S1130E563A202573200A0D002D2D2D2D2D2D2D2DF7
S1130E662D2D2D2D2D2D2D2D2D2D2D2D2D2D2D2DA8
S1130E762D2D2D2D2D2D2D2D2D2D2D2D2D2D2D2D98
S1130E862D2D2D2D2D2D2D2D2D2D2D2D2D2D2D2D88
S1130E962D2D2D2D2D2D2D2D2D2D2D2D2D2D2D2D78
S1130EA62D2D2D2D2D2D2D2D2D2D2D2D2D2D2D2D68
S1130EB62D2D2D2D2D2D2D2D2D2D2D2D2D2D2D2D58
S1130EC62D2D2D2D2D2D2D2D2D2D2D2D2D2D0A0D8B
S1130ED60052454345495645203D3E206C656E67A4
S1130EE674683A20202564200A0D69643A20256432
S1130EF6200A0D646174613A202573200A0D0020CE
S1130F064D435032353135206973204E4F54206994
S1130F166E20636F6E66696775726174696F6E20A1
S1130F266D6F64652061667465722072657365749D
S1090F362021206E2000C2
S9030000FC
