S011000070696E675F706F6E672E7372656352
S11300000C9438000C9455000C9455000C94550035
S11300100C9455000C9455000C9455000C94550008
S11300200C9455000C9455000C9455000C945500F8
S11300300C9455000C9455000C9455000C945500E8
S11300400C9455000C9455000C9455000C945500D8
S11300500C9455000C9455000C9455000C945500C8
S11300600C9455000C9455000C9455000C945500B8
S113007011241FBECFEFD4E0DEBFCDBF13E0A0E05C
S1130080B1E0EEE5FFE002C005900D92A233B107A6
S1130090D9F723E0A2E3B3E001C01D92A034B20774
S11300A0E1F70E94F2010C94AD070C94000082E089
S11300B087BB80E882BD87B5806287BD87B58864C9
S11300C087BD87B5816087BD089521E02093001422
S11300D020E030E060E070E00CC0409100145CE38C
S11300E05A95F1F72817390711F4642F70E02F5F40
S11300F03F4F243031058CF3CB010895CF93DF9328
S113010080E090E00E946500C2E3D3E09983888395
S113011081E090E00E9465009B838A8360913203B2
S1130120709133038091340390913503DF91CF9123
S11301300895CF93DF9381E090E00E946500EC0185
S113014080E090E00E946500FC01409132035091F0
S113015033034C1B5D0B9A0122F422273327241B03
S1130160350BA90160913403709135036E1B7F0B2D
S11301709B0122F422273327261B370B81E04530CD
S113018051050CF080E091E0253031050CF090E051
S1130190982381F580913203909133039E01281BAB
S11301A0390BC901992324F488279927821B930BBF
S11301B02091340330913503AF01421B530B9A0154
S11301C022F422273327241B350B281739074CF434
S11301D080913203909133038C179D076CF483E074
S11301E00EC080913403909135038E179F0734F429
S11301F080E005C084E003C082E001C081E0DF91BB
S1130200CF910895CF92DF92EF92FF921F93CF93F5
S1130210DF930E949900823009F469C030F4882386
S113022051F0813009F49AC0D3C0833091F1843005
S113023009F4CBC0CDC080E090E00E946500C2E329
S1130240D3E02A813B81821B930B9C0114E6129F0D
S1130250C001139F900D11242A813B816FED70E042
S1130260621B730B0E94E8027B0181E090E00E9414
S1130270650028813981821B930B9C01129FC00168
S1130280139F900D1124688179810E94E8026B010B
S11302909FC081E090E00E946500C2E3D3E0288122
S11302A03981821B930B9C0114E6129FC001139F9A
S11302B0900D1124288139816FED70E0621B730B5E
S11302C00E94E8026B0180E090E00E9465002A81B0
S11302D03B81821B930B9C01129FC001139F900DC5
S11302E011246A817B810E94E8027B0171C081E054
S11302F090E00E946500E2E3F3E020813181821BFB
S1130300930B9C0144E6429FC001439F900D11242E
S11303104081518123E030E0241B350BB90122F4E4
S113032066277727621B730B0E94E8026B0180E04B
S113033090E00E946500E2E3F3E022813381821BB6
S1130340930B9C0144E6429FC001439F900D1124EE
S1130350628173810E94E8027B013AC080E090E0F0
S11303600E946500E2E3F3E022813381821B930B58
S11303709C0144E6429FC001439F900D1124428199
S1130380538123E030E0241B350BB90122F46627A6
S11303907727621B730B0E94E8027B0181E090E0E7
S11303A00E946500E2E3F3E020813181821B930B1C
S11303B09C0144E6429FC001439F900D112460813B
S11303C071810E94E8026B0103C0C12CD12C76011B
S11303D0C701B601DF91CF911F91FF90EF90DF909D
S11303E0CF9008958FE190E00E94DB020E94840286
S11303F00E9457000E947E000E9413028FEF86B96C
S113040082E087B90E948F022FEF8FE791E021509D
S113041080409040E1F700C000C0F6CF60E070E09B
S11304200E948B0208958EEA90E00E940E0281EAF7
S113043090E00E940E028AED90E00E940E0282E19A
S113044090E00E940E0288EC90E00E940E0288EA7E
S113045090E00E940E028FE390E00E940E0285ED70
S113046090E00E940E0280E890E00E940E0281E873
S113047090E00E940E0280E590E00E940E0289ED59
S113048090E00E940E0281E290E00E940E0280E25F
S113049090E00E940E0282E090E00E940E028BED3A
S11304A090E00E940E0280E390E00E940E028DEA2A
S11304B090E00E940E0280E090E00E940E0284EA26
S11304C090E00E940E0286EA90E00E940E028FEAFB
S11304D090E00E940E020895B69B07C086E091E06A
S11304E00E94710381E090E0089580E090E0089517
S11304F0B79B07C084E191E00E94710381E090E022
S1130500089580E090E0089585B7806885BF80B73E
S1130510886080BF0895FB01F05F808308950E9486
S11305200201D62EC72EB82EA92E8BE192E00E948E
S1130530710383E090E00E946500F82EE92E82E0CA
S113054090E00E946500182F092F0E947802C82F9E
S1130550D92F0E946C02AF92BF92CF92DF92EF929A
S1130560FF920F931F93DF93CF939F938F9382EC0C
S113057092E09F938F930E945B038BE192E00E9431
S113058071032FE38DE093E0215080409040E1F728
S113059000C000008DB79EB70E960FB6F8949EBFAC
S11305A00FBE8DBFBCCF5D9BFECF8CB908955F9B02
S11305B0FECF8CB1089590BD89B988E18AB98EE8DF
S11305C080BD67ED72E083ED92E00E941003089510
S11305D097FB072E16F4009407D077FD09D00E94EC
S11305E0FC0207FC05D03EF4909581959F4F089539
S11305F0709561957F4F0895AA1BBB1B51E107C0FD
S1130600AA1FBB1FA617B70710F0A61BB70B881F9E
S1130610991F5A95A9F780959095BC01CD0108952D
S11306200F931F93CF93DF93009731F461157105F6
S113063019F480E090E03AC08B01EC016EE070E0C8
S113064081E090E00E948205FC01892B91F380E80F
S113065083830115110571F01387028781E8838371
S11306608091360390913703892B21F4F09337035B
S1130670E09336032097C9F0D187C08783818260D5
S113068083838091380390913903892B71F4F0931B
S11306903903E093380380913A0390913B03892B0B
S11306A021F4F0933B03E0933A03CF01DF91CF9120
S11306B01F910F910895A0E0B0E0E1E6F3E00C94FF
S11306C08607AE014B5F5F4FFA0161917191AF01F3
S11306D080913803909139030E94A103E2E00C94C5
S11306E0A2070F931F93CF93DF93E0913803F09108
S11306F03903238121FF1BC08C01D0E0C0E0F80145
S113070081918F016091380370913903DB01189650
S1130710ED91FC911997882331F00995892B79F390
S1130720DFEFCFEFECCF8AE00995892B19F08FEF3B
S11307309FEF02C08D2F9C2FDF91CF911F910F91BE
S11307400895ABE0B0E0E7EAF3E00C9476076C01BF
S11307507B018A01FC0117821682838181FFCCC14F
S1130760CE0101963C01F6019381F70193FD859139
S113077093FF81917F01882309F4BAC1853239F44A
S113078093FD859193FF81917F01853229F4B60110
S113079090E00E94DC06E7CF912C212C312CFFE164
S11307A0F315D8F08B3279F038F4803279F0833253
S11307B0A1F4232D20611DC08D3261F0803369F4D2
S11307C0232D216016C0832D8260382EE32DE46032
S11307D03E2E2AC0F32DF8601DC037FC2DC020ED3D
S11307E0280F2A3040F08E32B9F436FC81C1232D13
S11307F02064322E19C036FE06C08AE0989E200D71
S11308001124922E11C0EAE02E9E200D1124222ED6
S1130810F32DF0623F2E08C08C3621F4832D8068BE
S1130820382E02C0883641F4F70193FD859193FF79
S113083081917F018111B3CF982F9F7D955493307F
S113084028F40C5F1F4F9FE399830DC0833631F06A
S1130850833771F0833509F059C021C0F8018081D4
S113086089830E5F1F4F88248394912C530113C0F6
S11308702801F2E04F0E511CF801A080B18036FE31
S113088003C0692D70E002C06FEF7FEFC5010E94C5
S1130890D1064C018201F32DFF773F2E16C02801AB
S11308A022E0420E511CF801A080B18036FE03C044
S11308B0692D70E002C06FEF7FEFC5010E94BF0693
S11308C04C01F32DF0683F2E820133FC1BC0822DB6
S11308D090E088169906B0F4B60180E290E00E9498
S11308E0DC062A94F4CFF50137FC859137FE81911B
S11308F05F01B60190E00E94DC0621102A9421E0F9
S1130900821A91088114910471F7E8C0843611F0B9
S1130910893641F5F80137FE07C060817181828113
S113092093810C5F1F4F08C060817181072E000CFA
S1130930880B990B0E5F1F4FF32DFF763F2E97FF09
S113094009C090958095709561957F4F8F4F9F4F0B
S1130950F0683F2E2AE030E0A3010E941807882E99
S1130960861845C0853731F4232D2F7EB22E2AE018
S113097030E025C0932D997FB92E8F36C1F018F43D
S1130980883579F0B5C0803719F0883721F0B0C0C8
S1130990E92FE061BE2EB4FE0DC0FB2DF460BF2E26
S11309A009C034FE0AC0292F2660B22E06C028E0F2
S11309B030E005C020E130E002C020E132E0F8017F
S11309C0B7FE07C060817181828193810C5F1F4FE4
S11309D006C06081718180E090E00E5F1F4FA3012B
S11309E00E941807882E8618FB2DFF773F2E36FEAF
S11309F00DC0232D2E7FA22E891458F434FE0BC073
S1130A0032FC09C0832D8E7EA82E05C0B82CA32CE1
S1130A1003C0B82C01C0B92CA4FE0FC0FE01E80D20
S1130A20F11D8081803321F49A2D997EA92E09C06D
S1130A30A2FE06C0B394B39404C08A2D867809F04C
S1130A40B394A3FC11C0A0FE06C0B21488F4280C11
S1130A50922C9B180EC0B21460F4B60180E290E0B0
S1130A600E94DC06B394F7CFB21418F42B1802C01A
S1130A70982C212CA4FE10C0B60180E390E00E94C3
S1130A80DC06A2FE17C0A1FC03C088E790E002C008
S1130A9088E590E0B6010CC08A2D867859F0A1FE55
S1130AA002C08BE201C080E2A7FC8DE2B60190E0B7
S1130AB00E94DC06891438F4B60180E390E00E94B9
S1130AC0DC069A94F7CF8A94F301E80DF11D808136
S1130AD0B60190E00E94DC068110F5CF222009F4D3
S1130AE042CEB60180E290E00E94DC062A94F6CF62
S1130AF0F6018681978102C08FEF9FEF2B96E2E18A
S1130B000C9492070F931F93CF93DF93869F8001DA
S1130B10879F100D969F100D1124C8010E949E05F9
S1130B20EC01009729F0A80160E070E00E94CA0679
S1130B30CE01DF91CF911F910F9108950F931F93D1
S1130B40CF93DF938230910510F482E090E0E0913E
S1130B503E03F0913F0320E030E0A0E0B0E03097A6
S1130B6019F1408151810281138148175907C8F056
S1130B708417950769F4109731F012960C93129725
S1130B8013961C9327C000933E0310933F0322C087
S1130B902115310519F04217530718F49A01BD01C4
S1130BA0EF01DF01F801DBCF21153105F9F0281B36
S1130BB0390B2430310580F48A819B8161157105DC
S1130BC021F0FB019383828304C090933F038093BD
S1130BD03E03FE01329644C0FE01E20FF31F8193EF
S1130BE0919322503109398328833AC020913C03E0
S1130BF030913D03232B41F42091020130910301F4
S1130C0030933D0320933C03209100013091010176
S1130C102115310541F42DB73EB74091040150919F
S1130C200501241B350BE0913C03F0913D03E217D1
S1130C30F307A0F42E1B3F0B2817390778F0AC01FB
S1130C404E5F5F4F2417350748F04E0F5F1F5093D8
S1130C503D0340933C038193919302C0E0E0F0E0B4
S1130C60CF01DF91CF911F910F910895CF93DF931F
S1130C70009709F481C0FC01329713821282A0917B
S1130C803E03B0913F03109781F420813181820F9C
S1130C90931F20913C0330913D032817390751F5E8
S1130CA0F0933D03E0933C0367C0ED0120E030E0A6
S1130CB0CE17DF0740F44A815B819E01411551053F
S1130CC0F1F0EA01F5CFD383C28340815181840FCF
S1130CD0951FC817D90759F488819981840F951FE6
S1130CE00296918380838A819B81938382832115D9
S1130CF0310529F4F0933F03E0933E033DC0E9013D
S1130D00FB83EA8349915991C40FD51FEC17FD0762
S1130D1061F480819181840F951F0296E901998382
S1130D208883828193819B838A83E0E0F0E012963A
S1130D308D919C911397009719F0FD01DC01F7CF79
S1130D408D919C9111979D012E5F3F4F820F931FB0
S1130D5020913C0330913D032817390769F43097FB
S1130D6029F410923F0310923E0302C013821282B0
S1130D70B0933D03A0933C03DF91CF910895FC0110
S1130D800590615070400110D8F7809590958E0FB2
S1130D909F1F0895DC0101C06D9341505040E0F75E
S1130DA00895FC016150704001900110D8F78095BE
S1130DB090958E0F9F1F08950F931F93CF93DF93EA
S1130DC0FB01238121FD03C08FEF9FEF2CC022FF85
S1130DD016C046815781248135814217530744F454
S1130DE0A081B1819D012F5F3F4F318320838C937C
S1130DF0268137812F5F3F4F3783268314C08B01B1
S1130E00EC01FB010084F185E02D0995892BE1F6C5
S1130E10D80116968D919C911797019617969C93DD
S1130E208E931697CE01DF91CF911F910F91089564
S1130E30FA01AA27283051F1203181F1E8946F9307
S1130E406E7F6E5F7F4F8F4F9F4FAF4FB1E03ED0AD
S1130E50B4E03CD0670F781F891F9A1FA11D680F4B
S1130E60791F8A1F911DA11D6A0F711D811D911D7E
S1130E70A11D20D009F468943F912AE0269F1124F3
S1130E803019305D3193DEF6CF010895462F477057
S1130E90405D4193B3E00FD0C9F7F6CF462F4F70B2
S1130EA0405D4A3318F0495D31FD4052419302D010
S1130EB0A9F7EACFB4E0A6959795879577956795B6
S1130EC0BA95C9F700976105710508959B01AC01B6
S1130ED00A2E06945795479537952795BA95C9F7DD
S1130EE0620F731F841F951FA01D08952F923F92B8
S1130EF04F925F926F927F928F929F92AF92BF9226
S1130F00CF92DF92EF92FF920F931F93CF93DF93D1
S1130F10CDB7DEB7CA1BDB0B0FB6F894DEBF0FBE2E
S1130F20CDBF09942A88398848885F846E847D847B
S1130F308C849B84AA84B984C884DF80EE80FD807D
S1130F400C811B81AA81B981CE0FD11D0FB6F894F3
S1110F50DEBF0FBECDBFED010895F894FFCFB4
S1130F5E0000400320004C65667420627574746F43
S1130F6E6E200D00526967687420627574746F6E1A
S1130F7E200D0059454141480A0D005374617274A5
S1130F8E696E67205352414D20746573742E2E2E54
S1130F9E005772697465207068617365206572729A
S1130FAE6F723A206578745F72616D5B2534645D8F
S1130FBE203D2025303258202873686F756C6420CC
S1130FCE62652025303258290A00526574726965AB
S1130FDE76616C207068617365206572726F723A07
S1130FEE206578745F72616D5B2534645D203D20ED
S1130FFE25303258202873686F756C642062652022
S113100E25303258290A005352414D2074657374A9
S113101E20636F6D706C65746564207769746820E5
S113102E0A253464206572726F727320696E20779C
S113103E7269746520706861736520616E64200A3C
S113104E253464206572726F727320696E20726526
S113105E7472696576616C2070686173650A0A0042
S113106E63000A20414443200A0D002D2D2D2D2D01
S113107E2D2D2D2D2D2D2D2D2D2D2D2D2D2D2D2D8E
S113108E2D2D2D2D2D2D2D2D2D2D2D2D2D2D2D2D7E
S113109E2D2D2D2D2D2D2D2D2D2D2D2D2D2D2D2D6E
S11310AE2D2D2D2D2D2D2D2D2D2D2D2D2D2D2D2D5E
S11310BE2D2D2D2D2D2D2D2D2D2D2D2D2D2D2D2D4E
S11310CE2D2D2D2D2D2D2D2D2D2D2D2D2D2D2D2D3E
S11310DE2D2D2D2D2D2D2D2D2D2D2D2D2D2D2D2D2E
S11310EE2D2D2D2D2D2D2D2D2D2D2D2D2D2D2D2D1E
S11310FE2D2D2D2D2D2D2D2D2D2D2D2D2D2D2D2D0E
S113110E2D2D2D2D2D2D2D2D2D2D2D2D2D2D2D2DFD
S113111E0D004C65667420627574746F6E203A20EF
S113112E2564202020526967687420627574746F78
S113113E6E203A20256420200A0D4C6566742073B7
S113114E6C69646572203A202564202020526967F8
S113115E687420736C69646572203A2025642020BB
S113116E0A0D4A6F79737469636B20706F73203A3A
S113117E2058203D202025642059203D2025640D33
S105118E0A0051
S9030000FC
