:100000000C9438000C9455000C9455000C94550039
:100010000C9455000C9455000C9455000C9455000C
:100020000C9455000C9455000C9455000C945500FC
:100030000C9455000C9455000C9455000C945500EC
:100040000C9455000C9455000C9455000C945500DC
:100050000C9455000C9455000C9455000C945500CC
:100060000C9455000C9455000C9455000C945500BC
:1000700011241FBECFEFD4E0DEBFCDBF11E0A0E062
:10008000B1E0E0ECF0E102C005900D92AA39B107B1
:10009000D9F721E0AAE9B1E001C01D92A93AB2075F
:1000A000E1F70E945C020C945E080C94000082E070
:1000B00087BB80E882BD87B5806287BD87B58864CD
:1000C00087BD87B5816087BD089521E02093001426
:1000D00020E030E060E070E00CC0409100145CE390
:1000E0005A95F1F72817390711F4642F70E02F5F44
:1000F0003F4F243031058CF3CB0108950E94190342
:1001000065E088E20E94D00261EB89E20E94D002A1
:1001100063E08AE20E94D00240E060EE8FE00E943D
:100120002F0308950F931F93CF93DF938C01FC014E
:1001300060817181769567957695679576956795D7
:1001400081E30E94D002F80160816295660F607EB3
:1001500082E30E94D002F801628185E30E94D0020E
:10016000C0E0D0E009C0F801EC0FFD1F63818C2FC7
:100170008A5C0E94D0022196F801828190E0C81723
:10018000D9078CF380E090E00E94E602DF91CF91E6
:100190001F910F910895CF93DF9381E090E00E942B
:1001A0006500CAE9D1E0888380E090E00E946500A4
:1001B000898360919A0170919B0180919C01DF91EC
:1001C000CF910895CF9381E090E00E946500C82F01
:1001D00080E090E00E94650020919A016C2F70E011
:1001E00030E0261B370BA90122F444275527421B78
:1001F000530BFA0120919B01A82FB0E030E02A1B9D
:100200003B0BA90122F444275527421B530B21E045
:100210003A970CF020E091E04A3051050CF090E064
:10022000922319F590919A01691B71099B0122F49F
:1002300022273327261B370B90919B01A91BB1095D
:10024000AD0122F4442755274A1B5B0B4217530785
:1002500034F480919A018C1750F483E00BC0909194
:100260009B01981730F480E005C084E003C082E071
:1002700001C081E0CF9108951F93CF93DF930E9437
:10028000E200823009F488C030F4882359F08130CC
:1002900009F4C5C00AC1833009F441C0843009F4AF
:1002A00001C103C180E090E00E946500EAE9F1E04D
:1002B0002181821B91099C0144E6429FC001439F1A
:1002C000900D112421816FED70E0621B71090E9475
:1002D000C903CB01992324F488279927861B970B00
:1002E000182F81E090E00E946500EAE9F1E02081AA
:1002F000821B91099C0144E6429FC001439F900DDF
:100300001124608170E00E94C903CB01992324F479
:1003100088279927861B970BD82FC0E0C6C081E09D
:1003200090E00E946500EAE9F1E02081821B9109DA
:100330009C0144E6429FC001439F900D11242081FF
:100340006FED70E0621B71090E94C903CB01992314
:1003500024F488279927861B970BD82F80E090E0FC
:100360000E946500EAE9F1E02181821B91099C016C
:1003700044E6429FC001439F900D1124618170E0CB
:100380000E94C903CB01992324F488279927861B4F
:10039000970B182FC3E089C081E090E00E946500B0
:1003A000EAE9F1E02081821B91099C0144E6429F29
:1003B000C001439F900D1124408123E030E0241BB5
:1003C0003109B90122F466277727621B730B0E945B
:1003D000C903CB01992324F488279927861B970BFF
:1003E000D82F80E090E00E946500EAE9F1E02181E9
:1003F000821B91099C0144E6429FC001439F900DDE
:100400001124618170E00E94C903CB01992324F477
:1004100088279927861B970B182FC2E046C080E0DB
:1004200090E00E946500EAE9F1E02181821B9109D8
:100430009C0144E6429FC001439F900D11244181DD
:1004400023E030E0241B3109B90122F46627772725
:10045000621B730B0E94C903CB01992324F48827E4
:100460009927861B970B182F81E090E00E9465006A
:10047000EAE9F1E02081821B91099C0144E6429F58
:10048000C001439F900D1124608170E00E94C90358
:10049000CB01992324F488279927861B970BD82F03
:1004A000C1E003C0D0E010E0C4E06D2F712F8C2FAD
:1004B000DF91CF911F910895CF93DF93CDB7DEB732
:1004C0002B970FB6F894DEBF0FBECDBF8FE190E043
:1004D0000E94BC030E94A9030E9457000E94CB0007
:1004E0000E9450030E947E0082E087B986B18E7F11
:1004F00086B98BB787708BBF86B78E7F86BF8AB76A
:1005000080628ABF789483E08B8386E390E09A834D
:1005100089830E943C017C836D838E83CE0101968A
:100520000E94920059816A814B818E81833019F437
:1005300086E091E002C08CE091E03D812C816F93D8
:100540005F931F924F939F938F931F923F931F929E
:100550002F9387E191E09F938F930E943C042FEFAC
:100560008FE791E0215080409040E1F700C000C04B
:100570000FB6F894DEBF0FBECDBFCBCFCF93C82F41
:1005800088B38F7E88BB83E00E949E038C2F0E94DD
:100590009E030E94A20398B3906198BBCF910895E7
:1005A000CF93DF93D82FC62F88B38F7E88BB82E08E
:1005B0000E949E038D2F0E949E038C2F0E949E03FB
:1005C00088B3806188BBDF91CF9108959C0198B377
:1005D0009F7E98BB2130310579F01CF4232B41F02C
:1005E00017C02230310561F02330310569F010C0A9
:1005F00081E80E949E030FC082E80E949E030BC008
:1006000084E80E949E0307C087E80E949E0303C0FF
:1006100080E80E949E0388B3806188BB089588B3F8
:100620008F7E88BB80EC0E949E0388B3806188BB6C
:1006300008950E9497030E940F038EE00E94BE025D
:10064000807E803851F082E691E09F938F930E94E4
:100650003C040F900F9081E0089580E008951F936F
:10066000CF93DF93182FD62FC42F88B38F7E88BBEC
:1006700085E00E949E03812F0E949E038D2F0E9481
:100680009E038C2F0E949E0388B3806188BBDF91FC
:10069000CF911F91089560E070E00E94B00308952B
:1006A000EDE9F1E0108211828EEA0E944B0381EAAB
:1006B0000E944B038AED0E944B0382E10E944B0390
:1006C00088EC0E944B0388EA0E944B038FE30E9450
:1006D0004B0385ED0E944B0380E80E944B0381E8A9
:1006E0000E944B0380E50E944B0389ED0E944B035F
:1006F00081E20E944B0380E20E944B0382E00E9451
:100700004B038BED0E944B0380E30E944B038DEA69
:100710000E944B0380E00E944B0384EA0E944B033B
:1007200086EA0E944B038FEA0E944B03089587B329
:10073000806B87BB8DB181658DB908958FB9779B2B
:10074000FECF089580E00E949E03779BFECF8FB17D
:10075000089585B7806885BF80B7886080BF089599
:10076000FB01F05F808308955D9BFECF8CB90895F7
:100770005F9BFECF8CB1089590BD89B988E18AB99D
:100780008EE880BD68EB73E084EB93E00E94F10398
:10079000089597FB072E16F4009407D077FD09D033
:1007A0000E94DD0307FC05D03EF4909581959F4F94
:1007B0000895709561957F4F0895AA1BBB1B51E169
:1007C00007C0AA1FBB1FA617B70710F0A61BB70BC1
:1007D000881F991F5A95A9F780959095BC01CD0166
:1007E00008950F931F93CF93DF93009731F4611512
:1007F000710519F480E090E03AC08B01EC016EE0E5
:1008000070E081E090E00E943306FC01892B91F3B7
:1008100080E883830115110571F01387028781E851
:10082000838380919F019091A001892B21F4F09303
:10083000A001E0939F012097C9F0D187C0878381F1
:10084000826083838091A1019091A201892B71F430
:10085000F093A201E093A1018091A3019091A401E2
:10086000892B21F4F093A401E093A301CF01DF9140
:10087000CF911F910F910895A0E0B0E0E2E4F4E081
:100880000C943708AE014B5F5F4FFA016191719193
:10089000AF018091A1019091A2010E945204E2E077
:1008A0000C945308ABE0B0E0E8E5F4E00C942708C2
:1008B0006C017B018A01FC0117821682838181FF12
:1008C000CCC1CE0101963C01F6019381F70193FD65
:1008D000859193FF81917F01882309F4BAC1853204
:1008E00039F493FD859193FF81917F01853229F43D
:1008F000B60190E00E948D07E7CF912C212C312C7E
:10090000FFE1F315D8F08B3279F038F4803279F0CA
:100910008332A1F4232D20611DC08D3261F080331C
:1009200069F4232D216016C0832D8260382EE32DBB
:10093000E4603E2E2AC0F32DF8601DC037FC2DC0A8
:1009400020ED280F2A3040F08E32B9F436FC81C1F8
:10095000232D2064322E19C036FE06C08AE0989EF0
:10096000200D1124922E11C0EAE02E9E200D11249C
:10097000222EF32DF0623F2E08C08C3621F4832DF9
:100980008068382E02C0883641F4F70193FD8591C6
:1009900093FF81917F018111B3CF982F9F7D955453
:1009A000933028F40C5F1F4F9FE399830DC083366B
:1009B00031F0833771F0833509F059C021C0F80157
:1009C000808189830E5F1F4F88248394912C53016B
:1009D00013C02801F2E04F0E511CF801A080B18035
:1009E00036FE03C0692D70E002C06FEF7FEFC501D6
:1009F0000E9482074C018201F32DFF773F2E16C023
:100A0000280122E0420E511CF801A080B18036FE80
:100A100003C0692D70E002C06FEF7FEFC5010E9437
:100A200070074C01F32DF0683F2E820133FC1BC090
:100A3000822D90E088169906B0F4B60180E290E02D
:100A40000E948D072A94F4CFF50137FC859137FE7B
:100A500081915F01B60190E00E948D0721102A94D8
:100A600021E0821A91088114910471F7E8C084365C
:100A700011F0893641F5F80137FE07C060817181B8
:100A8000828193810C5F1F4F08C060817181072EA6
:100A9000000C880B990B0E5F1F4FF32DFF763F2E36
:100AA00097FF09C090958095709561957F4F8F4F06
:100AB0009F4FF0683F2E2AE030E0A3010E94C90753
:100AC000882E861845C0853731F4232D2F7EB22E0F
:100AD0002AE030E025C0932D997FB92E8F36C1F0E2
:100AE00018F4883579F0B5C0803719F0883721F0CF
:100AF000B0C0E92FE061BE2EB4FE0DC0FB2DF46046
:100B0000BF2E09C034FE0AC0292F2660B22E06C0AF
:100B100028E030E005C020E130E002C020E132E012
:100B2000F801B7FE07C060817181828193810C5FFB
:100B30001F4F06C06081718180E090E00E5F1F4F03
:100B4000A3010E94C907882E8618FB2DFF773F2E30
:100B500036FE0DC0232D2E7FA22E891458F434FEAC
:100B60000BC032FC09C0832D8E7EA82E05C0B82C88
:100B7000A32C03C0B82C01C0B92CA4FE0FC0FE01E9
:100B8000E80DF11D8081803321F49A2D997EA92EE4
:100B900009C0A2FE06C0B394B39404C08A2D86781F
:100BA00009F0B394A3FC11C0A0FE06C0B21488F4EF
:100BB000280C922C9B180EC0B21460F4B60180E28F
:100BC00090E00E948D07B394F7CFB21418F42B185D
:100BD00002C0982C212CA4FE10C0B60180E390E046
:100BE0000E948D07A2FE17C0A1FC03C088E790E019
:100BF00002C088E590E0B6010CC08A2D867859F0D5
:100C0000A1FE02C08BE201C080E2A7FC8DE2B6012A
:100C100090E00E948D07891438F4B60180E390E0DB
:100C20000E948D079A94F7CF8A94F301E80DF11D85
:100C30008081B60190E00E948D078110F5CF2220BF
:100C400009F442CEB60180E290E00E948D072A941A
:100C5000F6CFF6018681978102C08FEF9FEF2B962A
:100C6000E2E10C9443080F931F93CF93DF93869F89
:100C70008001879F100D969F100D1124C8010E94BE
:100C80004F06EC01009729F0A80160E070E00E9497
:100C90007B07CE01DF91CF911F910F9108950F93A4
:100CA0001F93CF93DF938230910510F482E090E0A0
:100CB000E091A701F091A80120E030E0A0E0B0E0D1
:100CC000309719F1408151810281138148175907EA
:100CD000C8F08417950769F4109731F012960C93B9
:100CE000129713961C9327C00093A7011093A80195
:100CF00022C02115310519F04217530718F49A0143
:100D0000BD01EF01DF01F801DBCF21153105F9F05D
:100D1000281B390B2430310580F48A819B816115B1
:100D2000710521F0FB019383828304C09093A80195
:100D30008093A701FE01329644C0FE01E20FF31F2B
:100D40008193919322503109398328833AC02091AD
:100D5000A5013091A601232B41F42091020130918D
:100D600003013093A6012093A50120910001309149
:100D700001012115310541F42DB73EB74091040121
:100D800050910501241B350BE091A501F091A601BE
:100D9000E217F307A0F42E1B3F0B2817390778F052
:100DA000AC014E5F5F4F2417350748F04E0F5F1FB1
:100DB0005093A6014093A5018193919302C0E0E076
:100DC000F0E0CF01DF91CF911F910F910895CF9364
:100DD000DF93009709F481C0FC01329713821282DD
:100DE000A091A701B091A801109781F420813181D1
:100DF000820F931F2091A5013091A6012817390772
:100E000051F5F093A601E093A50167C0ED0120E044
:100E100030E0CE17DF0740F44A815B819E01411527
:100E20005105F1F0EA01F5CFD383C28340815181AE
:100E3000840F951FC817D90759F488819981840FA9
:100E4000951F0296918380838A819B8193838283FD
:100E50002115310529F4F093A801E093A7013DC0C5
:100E6000E901FB83EA8349915991C40FD51FEC171F
:100E7000FD0761F480819181840F951F0296E9013D
:100E800099838883828193819B838A83E0E0F0E069
:100E900012968D919C911397009719F0FD01DC013A
:100EA000F7CF8D919C9111979D012E5F3F4F820F3F
:100EB000931F2091A5013091A6012817390769F4E5
:100EC000309729F41092A8011092A70102C0138252
:100ED0001282B093A601A093A501DF91CF9108954E
:100EE000FC010590615070400110D8F780959095F5
:100EF0008E0F9F1F0895DC0101C06D93415050403B
:100F0000E0F70895FC016150704001900110D8F79E
:100F1000809590958E0F9F1F08950F931F93CF93E9
:100F2000DF93FB01238121FD03C08FEF9FEF2CC0D6
:100F300022FF16C04681578124813581421753070D
:100F400044F4A081B1819D012F5F3F4F3183208305
:100F50008C93268137812F5F3F4F3783268314C0C0
:100F60008B01EC01FB010084F185E02D0995892BB3
:100F7000E1F6D80116968D919C91179701961796D8
:100F80009C938E931697CE01DF91CF911F910F9175
:100F90000895FA01AA27283051F1203181F1E8940F
:100FA0006F936E7F6E5F7F4F8F4F9F4FAF4FB1E05C
:100FB0003ED0B4E03CD0670F781F891F9A1FA11D57
:100FC000680F791F8A1F911DA11D6A0F711D811D58
:100FD000911DA11D20D009F468943F912AE0269F1D
:100FE00011243019305D3193DEF6CF010895462F7C
:100FF0004770405D4193B3E00FD0C9F7F6CF462F5D
:101000004F70405D4A3318F0495D31FD40524193C5
:1010100002D0A9F7EACFB4E0A69597958795779582
:101020006795BA95C9F700976105710508959B0109
:10103000AC010A2E06945795479537952795BA9592
:10104000C9F7620F731F841F951FA01D08952F926B
:101050003F924F925F926F927F928F929F92AF9248
:10106000BF92CF92DF92EF92FF920F931F93CF9395
:10107000DF93CDB7DEB7CA1BDB0B0FB6F894DEBF2C
:101080000FBECDBF09942A88398848885F846E8452
:101090007D848C849B84AA84B984C884DF80EE809C
:1010A000FD800C811B81AA81B981CE0FD11D0FB6A5
:1010B000F894DEBF0FBECDBFED010895F894FFCFC9
:1010C0000000A90120007269677468006465206CE3
:1010D000616D6572646500566572746963616C2048
:1010E0003A202564202020202020486F72697A6FE2
:1010F0006E74616C20202564202020444952203ADF
:10110000202573200D0A204C454E474854203A2094
:10111000256420202020204944203A202564200DE9
:101120000A00204D435032353135206973204E4F2F
:101130005420696E20636F6E6669677572617469A9
:101140006F6E206D6F6465206166746572207265D4
:0A1150007365742021206E2000005A
:00000001FF
