:100000000C9438000C9455000C9455000C94550039
:100010000C9455000C9455000C9455000C9455000C
:100020000C9455000C9455000C9455000C945500FC
:100030000C9455000C9455000C9455000C945500EC
:100040000C9455000C9455000C9455000C945500DC
:100050000C9455000C9455000C9455000C945500CC
:100060000C9455000C9455000C9455000C945500BC
:1000700011241FBECFEFD4E0DEBFCDBF11E0A0E062
:10008000B1E0E4E9F0E102C005900D92AE3BB107AA
:10009000D9F721E0AEEBB1E001C01D92AC3CB20754
:1000A000E1F70E9465020C9448080C94000082E07D
:1000B00087BB80E882BD87B5806287BD87B58864CD
:1000C00087BD87B5816087BD089521E02093001426
:1000D00020E030E060E070E00CC0409100145CE390
:1000E0005A95F1F72817390711F4642F70E02F5F44
:1000F0003F4F243031058CF3CB0108950E94FD025F
:1001000063E08AE20E94B40261EB89E20E94B402D9
:1001100065E088E20E94B40240E060EE8FE00E9459
:10012000130308950F931F93CF93DF938C01FC016A
:1001300060817181769567957695679576956795D7
:1001400081E30E94B402F80160816295660F607ECF
:1001500082E30E94B402F801628185E30E94B40246
:10016000C0E0D0E009C0F801EC0FFD1F63818C2FC7
:100170008A5C0E94B4022196F801828190E0C8173F
:10018000D9078CF380E090E00E94CA02DF91CF9102
:100190001F910F910895CF9381E090E00E94650038
:1001A000C82F80E090E00E9465002091BE016C2F76
:1001B00070E030E0261B370BA90122F444275527B5
:1001C000421B530BFA012091BF01A82FB0E030E091
:1001D0002A1B3B0BA90122F444275527421B530B32
:1001E00021E03A970CF020E091E04A3051050CF004
:1001F00090E0922319F59091BE01691B71099B0152
:1002000022F422273327261B370B9091BF01A91B0D
:10021000B109AD0122F4442755274A1B5B0B421755
:10022000530734F48091BE018C1750F483E00BC067
:100230009091BF01981730F480E005C084E003C0BE
:1002400082E001C081E0CF910895CF93DF930E94B7
:10025000CB00823009F496C030F4882359F0813005
:1002600009F4DAC02DC1833009F448C0843009F4A0
:100270001DC126C180E090E00E946500EEEBF1E038
:100280002181821B91099C0144E6429FC001439F4A
:10029000900D112421816FED70E0621B71090E94A5
:1002A000B303CB01992324F488279927861B970B46
:1002B000D82F81E090E00E946500EEEBF1E0208114
:1002C000821B91099C0144E6429FC001439F900D0F
:1002D0001124608170E00E94B303CB01992324F4C0
:1002E00088279927861B970BC82F86E091E09F935C
:1002F0008F930E9426040F900F90E2C081E090E05F
:100300000E946500EEEBF1E02081821B91099C01C7
:1003100044E6429FC001439F900D112420816FED60
:1003200070E0621B71090E94B303CB01992324F48E
:1003300088279927861B970BC82F80E090E00E94A2
:100340006500EEEBF1E02181821B91099C0144E6FE
:10035000429FC001439F900D1124618170E00E9473
:10036000B303CB01992324F488279927861B970B85
:10037000D82F86E191E09F938F930E9426040F90DF
:100380000F909EC081E090E00E946500EEEBF1E0EE
:100390002081821B91099C0144E6429FC001439F3A
:1003A000900D1124408123E030E0241B3109B90174
:1003B00022F466277727621B730B0E94B303CB01DD
:1003C000992324F488279927861B970BC82F80E050
:1003D00090E00E946500EEEBF1E02181821B910923
:1003E0009C0144E6429FC001439F900D112461810E
:1003F00070E00E94B303CB01992324F48827992746
:10040000861B970BD82F89E291E09F938F930E94D0
:1004100026040F900F9054C080E090E00E94650089
:10042000EEEBF1E02181821B91099C0144E6429FA1
:10043000C001439F900D1124418123E030E0241B33
:100440003109B90122F466277727621B730B0E94DA
:10045000B303CB01992324F488279927861B970B94
:10046000D82F81E090E00E946500EEEBF1E0208162
:10047000821B91099C0144E6429FC001439F900D5D
:100480001124608170E00E94B303CB01992324F40E
:1004900088279927861B970BC82F8BE391E09F93A2
:1004A0008F930E9426040F900F900AC0C0E0D0E006
:1004B0008DE491E09F938F930E9426040F900F90FC
:1004C0008C2F9D2FDF91CF910895CF93DF93CDB7E0
:1004D000DEB72B970FB6F894DEBF0FBECDBF8FE10E
:1004E00090E00E94A6030E9493030E9457000E947E
:1004F00034030E947E008FEF86B982E087B98BE2D9
:1005000090E09A83898383E08B830E942501082FE2
:10051000192F9C838D8386E48E83CE0101960E94E1
:1005200092001F920F931F921F9381E691E09F9379
:100530008F930E9426040F900F900F900F900F90B2
:100540000F90E3CFCF93C82F88B38F7E88BB83E013
:100550000E9488038C2F0E9488030E948C0398B30A
:10056000906198BBCF910895CF93DF93D82FC62F7A
:1005700088B38F7E88BB82E00E9488038D2F0E9403
:1005800088038C2F0E94880388B3806188BBDF9129
:10059000CF9108959C0198B39F7E98BB213031057F
:1005A00079F01CF4232B41F017C02230310561F0A3
:1005B0002330310569F010C081E80E9488030FC024
:1005C00082E80E9488030BC084E80E94880307C069
:1005D00087E80E94880303C080E80E94880388B3EC
:1005E000806188BB089588B38F7E88BB80EC0E94B1
:1005F000880388B3806188BB08950E947B030E94B2
:10060000F3028EE00E94A202807E803851F086E8DC
:1006100091E09F938F930E9426040F900F9081E0AA
:10062000089580E008951F93CF93DF93182FD62F5E
:10063000C42F88B38F7E88BB85E00E948803812FFA
:100640000E9488038D2F0E9488038C2F0E948803AC
:1006500088B3806188BBDF91CF911F91089560E0DE
:1006600070E00E949A030895E0ECF1E0108211829C
:100670008EEA0E942F0381EA0E942F038AED0E94D6
:100680002F0382E10E942F0388EC0E942F0388EA47
:100690000E942F038FE30E942F0385ED0E942F03FA
:1006A00080E80E942F0381E80E942F0380E50E94CA
:1006B0002F0389ED0E942F0381E20E942F0380E225
:1006C0000E942F0382E00E942F038BED0E942F03D4
:1006D00080E30E942F038DEA0E942F0380E00E9496
:1006E0002F0384EA0E942F0386EA0E942F038FEAD9
:1006F0000E942F03089587B3806B87BB8DB18165FE
:100700008DB98DB1877F8DB98DB18B7F8DB90895EE
:100710008FB9779BFECF089580E00E948803779B76
:10072000FECF8FB1089585B7806885BF80B7886098
:1007300080BF0895FB01F05F808308955D9BFECF2D
:100740008CB908955F9BFECF8CB1089590BD89B997
:1007500088E18AB98EE880BD62EA73E08EE993E0B1
:100760000E94DB03089597FB072E16F4009407D030
:1007700077FD09D00E94C70307FC05D03EF4909591
:1007800081959F4F0895709561957F4F0895AA1B9D
:10079000BB1B51E107C0AA1FBB1FA617B70710F06C
:1007A000A61BB70B881F991F5A95A9F7809590959E
:1007B000BC01CD0108950F931F93CF93DF93009752
:1007C00031F46115710519F480E090E03AC08B01B5
:1007D000EC016EE070E081E090E00E941D06FC01FB
:1007E000892B91F380E883830115110571F013873C
:1007F000028781E883838091C2019091C301892B94
:1008000021F4F093C301E093C2012097C9F0D1878E
:10081000C0878381826083838091C4019091C501E8
:10082000892B71F4F093C501E093C4018091C60156
:100830009091C701892B21F4F093C701E093C60181
:10084000CF01DF91CF911F910F910895A0E0B0E00B
:10085000ECE2F4E00C942108AE014B5F5F4FFA012B
:1008600061917191AF018091C4019091C5010E9485
:100870003C04E2E00C943D08ABE0B0E0E2E4F4E0DC
:100880000C9411086C017B018A01FC01178216820D
:10089000838181FFCCC1CE0101963C01F601938199
:1008A000F70193FD859193FF81917F01882309F4DE
:1008B000BAC1853239F493FD859193FF81917F010F
:1008C000853229F4B60190E00E947707E7CF912C9A
:1008D000212C312CFFE1F315D8F08B3279F038F46C
:1008E000803279F08332A1F4232D20611DC08D3236
:1008F00061F0803369F4232D216016C0832D82605E
:10090000382EE32DE4603E2E2AC0F32DF8601DC082
:1009100037FC2DC020ED280F2A3040F08E32B9F47C
:1009200036FC81C1232D2064322E19C036FE06C04C
:100930008AE0989E200D1124922E11C0EAE02E9E8E
:10094000200D1124222EF32DF0623F2E08C08C368C
:1009500021F4832D8068382E02C0883641F4F701D7
:1009600093FD859193FF81917F018111B3CF982FE2
:100970009F7D9554933028F40C5F1F4F9FE399831C
:100980000DC0833631F0833771F0833509F059C0DB
:1009900021C0F801808189830E5F1F4F88248394D2
:1009A000912C530113C02801F2E04F0E511CF801A5
:1009B000A080B18036FE03C0692D70E002C06FEFE9
:1009C0007FEFC5010E946C074C018201F32DFF7778
:1009D0003F2E16C0280122E0420E511CF801A080D3
:1009E000B18036FE03C0692D70E002C06FEF7FEF6B
:1009F000C5010E945A074C01F32DF0683F2E820179
:100A000033FC1BC0822D90E088169906B0F4B60125
:100A100080E290E00E9477072A94F4CFF50137FC3A
:100A2000859137FE81915F01B60190E00E947707C2
:100A300021102A9421E0821A91088114910471F7FF
:100A4000E8C0843611F0893641F5F80137FE07C059
:100A500060817181828193810C5F1F4F08C060812A
:100A60007181072E000C880B990B0E5F1F4FF32D21
:100A7000FF763F2E97FF09C0909580957095619500
:100A80007F4F8F4F9F4FF0683F2E2AE030E0A30149
:100A90000E94B307882E861845C0853731F4232D70
:100AA0002F7EB22E2AE030E025C0932D997FB92EFB
:100AB0008F36C1F018F4883579F0B5C0803719F059
:100AC000883721F0B0C0E92FE061BE2EB4FE0DC022
:100AD000FB2DF460BF2E09C034FE0AC0292F26600A
:100AE000B22E06C028E030E005C020E130E002C0B0
:100AF00020E132E0F801B7FE07C060817181828198
:100B000093810C5F1F4F06C06081718180E090E08F
:100B10000E5F1F4FA3010E94B307882E8618FB2D7E
:100B2000FF773F2E36FE0DC0232D2E7FA22E891477
:100B300058F434FE0BC032FC09C0832D8E7EA82EE3
:100B400005C0B82CA32C03C0B82C01C0B92CA4FE3E
:100B50000FC0FE01E80DF11D8081803321F49A2D34
:100B6000997EA92E09C0A2FE06C0B394B39404C016
:100B70008A2D867809F0B394A3FC11C0A0FE06C0AC
:100B8000B21488F4280C922C9B180EC0B21460F496
:100B9000B60180E290E00E947707B394F7CFB214D9
:100BA00018F42B1802C0982C212CA4FE10C0B601FA
:100BB00080E390E00E947707A2FE17C0A1FC03C06B
:100BC00088E790E002C088E590E0B6010CC08A2D6D
:100BD000867859F0A1FE02C08BE201C080E2A7FC3A
:100BE0008DE2B60190E00E947707891438F4B601CF
:100BF00080E390E00E9477079A94F7CF8A94F301FC
:100C0000E80DF11D8081B60190E00E947707811008
:100C1000F5CF222009F442CEB60180E290E00E9496
:100C200077072A94F6CFF6018681978102C08FEF6D
:100C30009FEF2B96E2E10C942D080F931F93CF9317
:100C4000DF93869F8001879F100D969F100D1124C2
:100C5000C8010E943906EC01009729F0A80160E064
:100C600070E00E946507CE01DF91CF911F910F9137
:100C700008950F931F93CF93DF938230910510F463
:100C800082E090E0E091CA01F091CB0120E030E0F9
:100C9000A0E0B0E0309719F14081518102811381C9
:100CA00048175907C8F08417950769F4109731F071
:100CB00012960C93129713961C9327C00093CA01A7
:100CC0001093CB0122C02115310519F042175307AB
:100CD00018F49A01BD01EF01DF01F801DBCF211506
:100CE0003105F9F0281B390B2430310580F48A8155
:100CF0009B816115710521F0FB019383828304C000
:100D00009093CB018093CA01FE01329644C0FE014C
:100D1000E20FF31F81939193225031093983288385
:100D20003AC02091C8013091C901232B41F4209190
:100D30000201309103013093C9012093C801209131
:100D40000001309101012115310541F42DB73EB765
:100D50004091040150910501241B350BE091C8011D
:100D6000F091C901E217F307A0F42E1B3F0B2817DF
:100D7000390778F0AC014E5F5F4F2417350748F014
:100D80004E0F5F1F5093C9014093C8018193919307
:100D900002C0E0E0F0E0CF01DF91CF911F910F9111
:100DA0000895CF93DF93009709F481C0FC01329737
:100DB00013821282A091CA01B091CB01109781F4E5
:100DC00020813181820F931F2091C8013091C90188
:100DD0002817390751F5F093C901E093C80167C09E
:100DE000ED0120E030E0CE17DF0740F44A815B815F
:100DF0009E0141155105F1F0EA01F5CFD383C2837D
:100E000040815181840F951FC817D90759F48881F3
:100E10009981840F951F0296918380838A819B819B
:100E2000938382832115310529F4F093CB01E0935C
:100E3000CA013DC0E901FB83EA8349915991C40F7E
:100E4000D51FEC17FD0761F480819181840F951FF8
:100E50000296E90199838883828193819B838A83A7
:100E6000E0E0F0E012968D919C911397009719F0B5
:100E7000FD01DC01F7CF8D919C9111979D012E5FB3
:100E80003F4F820F931F2091C8013091C90128174D
:100E9000390769F4309729F41092CB011092CA01F6
:100EA00002C013821282B093C901A093C801DF91DE
:100EB000CF910895FC010590615070400110D8F762
:100EC000809590958E0F9F1F0895DC0101C06D9352
:100ED00041505040E0F70895FC016150704001908E
:100EE0000110D8F7809590958E0F9F1F08950F934E
:100EF0001F93CF93DF93FB01238121FD03C08FEF6D
:100F00009FEF2CC022FF16C0468157812481358176
:100F10004217530744F4A081B1819D012F5F3F4FD9
:100F2000318320838C93268137812F5F3F4F378316
:100F3000268314C08B01EC01FB010084F185E02DB8
:100F40000995892BE1F6D80116968D919C911797FA
:100F5000019617969C938E931697CE01DF91CF91B1
:100F60001F910F910895FA01AA27283051F12031DD
:100F700081F1E8946F936E7F6E5F7F4F8F4F9F4F2D
:100F8000AF4FB1E03ED0B4E03CD0670F781F891F6F
:100F90009A1FA11D680F791F8A1F911DA11D6A0F3D
:100FA000711D811D911DA11D20D009F468943F91F0
:100FB0002AE0269F11243019305D3193DEF6CF01EF
:100FC0000895462F4770405D4193B3E00FD0C9F7B5
:100FD000F6CF462F4F70405D4A3318F0495D31FD22
:100FE0004052419302D0A9F7EACFB4E0A695979575
:100FF000879577956795BA95C9F70097610571054B
:1010000008959B01AC010A2E069457954795379594
:101010002795BA95C9F7620F731F841F951FA01DEE
:1010200008952F923F924F925F926F927F928F928C
:101030009F92AF92BF92CF92DF92EF92FF920F9367
:101040001F93CF93DF93CDB7DEB7CA1BDB0B0FB671
:10105000F894DEBF0FBECDBF09942A88398848882E
:101060005F846E847D848C849B84AA84B984C884C4
:10107000DF80EE80FD800C811B81AA81B981CE0FBB
:10108000D11D0FB6F894DEBF0FBECDBFED010895A0
:04109000F894FFCF02
:101094000000CC012000446972656374696F6E209E
:1010A4003A2055502000446972656374696F6E205C
:1010B4003A20524947485420004469726563746970
:1010C4006F6E203A204C4546542000446972656393
:1010D40074696F6E203A20444F574E200044697261
:1010E400656374696F6E203A204E4555545245200D
:1010F40000566572746963616C203A20256420206F
:1011040020202020486F72697A6F6E74616C2020F1
:101114002564200D0A00204D4350323531352069B5
:1011240073204E4F5420696E20636F6E6669677535
:10113400726174696F6E206D6F6465206166746599
:0E114400722072657365742021206E200000F9
:00000001FF
